S02A000073696D756C617465645F73656E736F72735F70726573737572655F616E645F68616C6C2E7333372C
S113000000100020950300009103000091030000FC
S1130010910300009103000091030000910300008C
S1130020910300009103000091030000910300007C
S1130030910300009103000091030000910300006C
S1130040910300009103000091030000910300005C
S1130050910300009103000091030000910300004C
S1130060910300009103000091030000910300003C
S1130070910300009103000091030000910300002C
S1130080910300009103000091030000910300001C
S1130090910300009103000091030000910300000C
S11300A091030000910300009103000091030000FC
S11300B09103000091030000910300005129000006
S11300C091030000910300009103000091030000DC
S11300D091030000910300009103000091030000CC
S11300E091030000910300009103000091030000BC
S11300F091030000910300009103000091030000AC
S1130100910300009103000091030000910300009B
S1130110910300009103000091030000910300008B
S1130120910300009103000091030000910300007B
S1130130910300009103000091030000910300006B
S1130140910300009103000091030000910300005B
S1130150000000000000000010B5054C237833B9FE
S1130160044B13B10448AFF300800123237010BD86
S113017088100020000000002031000008B5034B67
S11301801BB103490348AFF3008008BD0000000021
S11301908C10002020310000A3F5803A704700BF86
S11301A0174B002B08BF134B9D46FFF7F5FF0021AB
S11301B08B460F461348144A121A02F0BFFD0E4B29
S11301C0002B00D098470D4B002B00D098470020FF
S11301D0002104000D000D48002802D00C48AFF3A4
S11301E0008002F087FD2000290000F037F802F0BB
S11301F06DFD00BF000008000000000000000000CA
S11302000010002088100020D810002000000000FA
S11302100000000010B50E48012100F057FA0D4807
S1130220012100F053FA01230A220021022002F0E6
S11302301DF8012319460A22022002F017F8BDE82E
S11302401040012304220C21002002F00FB800BF4B
S11302500012090000550A007047704708B502F003
S11302609BFBFFF7D7FFFFF7F7FF00F005F802F05D
S1130270A0FBFFF7F2FFFAE77047704708B50421C7
S1130280112001F0A1F90B48012100F01FFA0A48DE
S1130290022101F099F90948022101F095F9084871
S11302A0022101F091F90748022101F08DF90020A3
S11302B008BD00BF30053E0002001E000300200000
S11302C0040022000500240008B54FF080430122F9
S11302D05A6403F564231B49D3F8B02042F00102A9
S11302E0C3F8B020D3F8E02042F00802C3F8E020BD
S11302F04A6B42F480524A63D3F8E02022F00802A9
S1130300C3F8E020D3F8B02022F00102C3F8B020F3
S11303100D4AD2F8A43143F4F843C2F8A43102F0F0
S1130320BBF800F02FF802F051F802F073F802F075
S11303309FF8FFF7A3FF02F05FF8BDE8084000F064
S113034015B800BF0040054000300E40704708B5A6
S113035000F00AF8BDE8084002F044B9704770475D
S113036070477047704770470F20704708B50448BE
S1130370012100F0ABF9BDE80840FFF77EBF00BFE4
S113038000550A000148012100F0A0B900550A00F7
S1130390FEE7000008B500F093F8124B12498B42B7
S11303A012D3124B124900208B4218D3FFF7F8FEE8
S11303B0186850F82240586840F822400132986882
S11303C08242F5D30C33EAE70022F8E71C6844F8CC
S11303D0220001325C68A242F8D30833E4E7002229
S11303E0F8E700BF28310000343100003431000048
S11303F0343100000048704700A24A04174AD2F87A
S1130400943003F00703023B042B1FD8DFE803F00A
S11304100620031A0800124B1B680AE0114BFBE785
S11304209368C3F30443073B072B14D80E4A52F8CE
S113043023300A4AD2F80001C0F304200130B3FB90
S1130440F0F07047094B1B685B08F2E7074BE3E7E2
S11304504FF40043EDE70023EBE700BF00400E40FC
S11304600C10002004100020682D0000081000204B
S113047008B5FFF7C3FF054BD3F80831C3F30823CE
S11304800133B0FBF3F0024B186008BD00400E408E
S113049000100020014B1868704700BF04100020B2
S11304A0054B1860054BD3F8943003F00703022B77
S11304B001D1FFF7DDBF70470410002000400E405B
S11304C0044B054A9A60D3F8882042F47002C3F8BA
S11304D08820704700ED00E0000000004FF4004069
S11304E070474FF47A707047014B1868704700BF2B
S11304F00C100020FEE700000C4B984210D90C4B66
S1130500984210D9022201230A490B640A49D1F8FE
S1130510003123F0407343EA0263C1F800317047AD
S113052000221346F0E70122FBE700BF0048E80180
S11305300090D0030000C84300400E4038B54FF08F
S1130540804300225B68104BC9B21C461D798D4262
S113055002D11D68854213D20132072A03F1080330
S1130560F4D10A4841F2CE51FFF7C4FF03224FF001
S113057080414B6823F0407343EA02634B6038BD0B
S113058004EBC2025279F2E7B42E0000882D000079
S113059010B51F28044604D903484FF4B371FFF77C
S11305A0A9FF0120A04010BDD62D0000044BDB6B39
S11305B05B0604D4034AD2F8C830002BFBD1704741
S11305C000300E400000C64308B5FFF7EFFF024BB2
S11305D05868C0F3014008BD00300E40044BD3F806
S11305E04421D20703D4D3F840211042FBD17047F1
S11305F000400E4038B5B0F5004F054604D30C4812
S113060040F61C61FFF776FF6C1C14BFB4FA84F447
S11306102024C4F11F042046FFF7BAFF0138A84282
S113062004D0034840F62361FFF764FF204638BD39
S1130630292E000070B54FF0804441F67136256CC8
S11306402664FFF7D7FE0021FFF778FFADB2B5426D
S11306501CBF0023236470BD70B54FF0804341F686
S113066071321E6C1A6405460C46FFF767FF134A85
S1130670134B022C08BF13469D42124AB6B209D945
S11306804FF08C43C3F800210F4A954207D84FF02E
S1130690884306E04FF08843C3F80021F7E7002CB5
S11306A0F5D14FF480521A6041F671339E421EBF59
S11306B04FF0804300221A6470BD00BF0024F40090
S11306C080D543020202020080F0FA0238B5C0F37A
S11306D00322013A03460E2A3AD8DFE802F04043E7
S11306E03939081B1E212536292E391833001F4C91
S11306F00020C3F3043508B1FFF770FF04F142444E
S113070004F5801405EBC404A400216038BD184C22
S11307100020EEE7174C0120EBE7174C1020E8E728
S1130720164C4FF48070E4E7154C4FF48030E0E74A
S1130730144C81F001010020DBE7134C81F001012E
S11307400020D6E7114C0020D3E7114C0020D0E75D
S1130750BDE838400F4841F66A31FFF7CBBE0E4C76
S11307600020C6E70D4C0020C3E700BFB0400E4098
S1130770C4400E40E0400E40E8400E40EC400E40C5
S1130780F0400E4060410E4064410E40F0410E4086
S113079050410E40882D000000400E40C0400E40E5
S11307A008B5C0F30313013B0B2B00F2AB80DFE869
S11307B003F0060C101A2024282C668692A5534BAD
S11307C0D3F80001C0F3042008BD504BD3F8140142
S11307D0F8E74E4BD3F80001C0F301600130FFF796
S11307E0D7FE0138F0E7494BD3F80C01C0F30820D9
S11307F0EAE7464BD3F81801F8E7444BD3F81C0159
S1130800F4E7424BD3F80801F0E7414B98422AD071
S11308100ED8A3F5BA2398422BD003F5703398422F
S113082015D041F60E513B48FFF764FE0020CBE79C
S1130830394B984205D0394B98420ED0384B9842E8
S1130840EFD1324BD3F82001C0F30230C7E72F4B6E
S1130850D3F8200100F00F00C1E72C4BD3F820019E
S1130860C0F30120BBE7294BD3F82001C0F30310E8
S1130870B5E7264BD3F82001C0F30340AFE7294B7B
S113088098420CD003F5A11398420ED0264B9842FF
S113089012D11E4BD3F8280100F003009FE71B4B35
S11308A0D3F82801C0F3011099E7184BD3F82801B5
S11308B0C0F30130043092E741F63251B3E71B4BE9
S11308C0984205D1114BD3F8300100F003007BE7C7
S11308D041F64151A7E7164B984205D0154B984273
S11308E006D041F659519EE7084BD3F85C01ECE77A
S11308F0064BD3F85C01C0F3014065E7034BD3F822
S1130900040173E741F666518DE700BF00400E40D5
S113091080161800882D000000362C0080262E003A
S113092080002A0090171C0090071A00A0091400E8
S1130930B8003200B900340008B5FFF731FF0130C8
S113094008BD000010B5C0F30313013B0C460B2B8C
S113095000F21882DFE813F00C0034004500600058
S1130960740088009C00BC006101CE01DA0102021F
S11309701F2904D9C44841F68F51FFF7BBFDFFF787
S113098059FEC248FFF7B8FD00F00AFAC04BD3F88D
S1130990001121F4F85141EA0424C3F80041FFF79F
S11309A067FD0446FFF710FE01462046FFF754FE9C
S11309B0FFF724FDFFF7A0FDBDE8104000F006BAE4
S11309C01F2904D9B04841F6A551FFF793FDB04B58
S11309D0D3F8141121F4F85141EA0424C3F8144162
S11309E010BD4B1EB3F5004F0DD2B4FA84F1A84BE1
S11309F0D3F80041C1F11F0124F0407444EA0164BA
S1130A00C3F80041ECE7A34840F62C51FFF772FD10
S1130A10002CEAD12021EAE7B1F5007F04D39A48FB
S1130A2041F6B251FFF766FD994BD3F80C1121F44E
S1130A30FF3121F4807141EA0421C3F80C11CFE79E
S1130A40B1F5007F04D3904841F6B951FFF752FD48
S1130A508F4BD3F8181121F4FF3121F4807141EA4E
S1130A600421C3F81811BBE7B1F5007F04D386480D
S1130A7041F6C151FFF73EFD854BD3F81C1121F41B
S1130A80FF3121F4807141EA0421C3F81C11A7E766
S1130A90B1F5007F04D37C4841F6C851FFF72AFD25
S1130AA0FFF7C8FD7A4BD3F8081121F4FF3121F484
S1130AB0807141EA0421C3F80811FFF7D9FC044608
S1130AC0FFF782FD01462046BDE81040FFF7C4BD94
S1130AD0714B984274D010D8704B984246D0704BEA
S1130AE0984257D0A3F57033984226D041F644611A
S1130AF0BDE810406448FFF7FDBC6A4B984205D03E
S1130B00694B984273D0694B9842EFD1B4F5004FCA
S1130B1004D95D4841F63661FFF7ECFC2046FFF747
S1130B2069FD01460420FFF759FD594AD2F82031E6
S1130B3023F4E04343EA013315E0B1F5004F04D94F
S1130B40514841F6DA51FFF7D5FC2046FFF752FD34
S1130B5001460420FFF742FD4D4AD2F8203123F428
S1130B60702343EA0143C2F8203139E7022904D94A
S1130B7041F6EB514448FFF7BDFC4FF48020FFF7EA
S1130B802DFD434BD3F8301121F003010C43C3F87E
S1130B90304125E7B1F5004F04D93B4841F60861DF
S1130BA0FFF7A8FC2046FFF725FD01460420FFF7C8
S1130BB015FD374AD2F8203123F00F030B43D2E757
S1130BC0B1F5004F04D9304841F61761FFF792FCA4
S1130BD02046FFF70FFD01460420FFF7FFFC2C4AD7
S1130BE0D2F8203123F0F00343EA0113BBE70829CC
S1130BF004D9254841F62661FFF77CFC2046FFF71F
S1130C00F9FC01460420FFF7E9FC214AD2F820311F
S1130C1023F4407343EA0123A5E7254B98421DD0F2
S1130C2003F5A113984247D0224B98425FD108297B
S1130C3004D9154841F64D61FFF75CFC2046FFF7E7
S1130C40D9FC01464020FFF7C9FC114AD2F82831EB
S1130C5023F003030B43C2F82831C1E6082904D961
S1130C60094841F65C61FFF745FC2046FFF7C2FCEA
S1130C7001464020FFF7B2FC054AD2F8283123F0A0
S1130C80300343EA0113E6E7882D00000148E80138
S1130C9000400E40292E000080161800A009140000
S1130CA08006160000362C0080262E0080002A00C4
S1130CB090171C0090071A00A1F10F03702B04D9A0
S1130CC0324841F66B61FFF715FC2046FFF792FCB2
S1130CD001464020FFF782FC2D4AD2F8280104394E
S1130CE020F4405040EA0130C2F8280178E641F689
S1130CF07A61FDE6274B984205D102297FF63DAF84
S1130D0041F6846136E741F69461F1E6224B98425C
S1130D1005D0224B984212D041F6AD61E8E6032992
S1130D2004D91A4841F69F61FFF7E4FB184BD3F846
S1130D305C1121F003010C43C3F85C4150E6032924
S1130D4004D9124841F6A761FFF7D4FB104BD3F83E
S1130D505C1121F4403141EA0444EDE7B1F5007F30
S1130D6004D30A4841F6B561FFF7C4FB084BD3F836
S1130D70041121F4FF3121F4807141EA0421C3F804
S1130D8004112DE641F6BC61B2E600BF882D0000D7
S1130D9000400E40A0091400B8003200B90034002D
S1130DA008B507480321FFF7CDFD06480321FFF7E7
S1130DB0C9FDBDE8084004480321FFF7C3BD00BFD7
S1130DC040410500504107006041090037B5FFF775
S1130DD015FB0446FFF7F8FB022817D1194B1A48F4
S1130DE01A491C449C42B4FBF1F188BF01F1FF3164
S1130DF00191FFF7A7FD01991548FFF7A3FD01999C
S1130E00144803B0BDE83040FFF79CBD124B134DAE
S1130E100D48E2189A42B2FBF5F588BF05F1FF359B
S1130E202946FFF78FFD0B482946FFF78BFD0C4B36
S1130E300C4907481C449C42B4FBF1F188BF01F102
S1130E40FF31DEE7FF2C310140410500002D310167
S1130E5050410700604109007FF0FA0280F0FA0275
S1130E60FFA14A0400A24A0408B500F00F000138AB
S1130E700B2879D8DFE800F006111B2F25397843B9
S1130E80515F6B6F414BD3F8943003F00703023B7F
S1130E90052B76D83E4AD05C30E03C4BD3F880300A
S1130EA003F00703013B032B6DD83A4AF3E7374BB2
S1130EB0D3F8843003F00703013B032B63D8364A8D
S1130EC0E9E7324BD3F8883003F00703013B032BE7
S1130ED059D8324ADFE72D4BD3F88C3003F007039F
S1130EE0013B032B4FD82E4AD5E7284B1B6F13F039
S1130EF0030340D0012B14BF0120092008BD234B5C
S1130F00D3F85C3103F03003202B36D0302B36D0AD
S1130F10102B14BF01200720F0E71C4BD3F85C31E1
S1130F2003F44013B3F5001F27D0B3F5401F26D0B8
S1130F30B3F5801FEDE7154BD3F8600100F0030013
S1130F40431E022B1DD800EB40000130D6E70F4BA7
S1130F50D3F86401F2E70D4BD3F8F03103F0070343
S1130F60052B10D80F4A96E70F4842F2BB01FFF752
S1130F70C1FA0020C2E70720C0E70420BEE708202A
S1130F80BCE70520BAE70120B8E700BF00400E40E7
S1130F90782E00007E2E0000822E00007E2E00009F
S1130FA07E2E0000862E0000882D000038B5314BBF
S1130FB0984205460BD01ED82F4B984207D02F4B92
S1130FC09D4204D02E4841F2CD61FFF793FA2846A2
S1130FD0FFF74AFF274B9D42044625D00DD8264BE8
S1130FE09D4211D0254B9D421AD0254841F2FC6107
S1130FF0FFF780FA0DE0234BE2E7224B9D42F4D148
S1131000214BD3F8884002E01F4BD3F8804004F012
S11310100704042C27D8DFE804F0240B0F1713006F
S1131020194BD3F88440F2E7174BD3F88C40EEE722
S1131030BDE83840FFF752BABDE83840FFF754BA6C
S1131040BDE83840FFF74DBAFFF7D8F90E4B044618
S1131050D3F80001C0F301600130FFF799FAB4FB43
S1131060F0F4204638BD064841F24E71FFF742FACB
S11310700024F6E70400220002001E000300200002
S1131080882D00000500240000400E4008B501280A
S113109014BF12481248FFF7E7FE0138072816D894
S11310A0DFE800F01A1515071515040B0D4B186829
S11310B008BDBDE80840FFF7EDB9FFF79FF90A4BFB
S11310C0D3F80031C3F3042303FB0000F0E707481F
S11310D041F2C741FFF70EFA0020E9E7B8003200F9
S11310E0B90034001010002000400E40882D00008C
S11310F038B500F47813B3F5E01F054600F0FC8022
S11311004CD8B3F5602F00F0108123D8B3F5C02F6D
S113111000F0A1800DD8B3F5003F00F0A880B3F52E
S1131120802F00F08D80002B00F0078141F69A415A
S113113009E1B3F5202F00F09480B3F5402F00F0BF
S11311409C80B3F5002FF1D1FFF758F9B14BD3F8D8
S11311501C317AE0B3F5B01F00F0AA800DD8B3F5C6
S1131160901F00F09280B3F5A01F00F09880B3F5B3
S1131170801FDBD1A84B18686CE0B3F5C01F00F0EA
S1131180A580B3F5D01FD1D1A448FFF70FFFA14B21
S11311900446D3F8280100F0030092E0B3F5401FA1
S11311A000F0B48024D8B3F5201F00F0BA800FD823
S11311B0B3F5001F00F09E80B3F5101F00F0B3805C
S11311C0B3F5F01FB2D19648BDE83840FFF7EEBE44
S11311D0B3F5281F00F08480B3F5381FA6D19048DA
S11311E0FFF7E4FE8B4BD3F82031C3F3012354E023
S11311F0B3F5601F00F0CF8013D8B3F5501F00F093
S1131200A780B3F5581F00F0AC80B3F5481F8DD10B
S11312100020FFF73BFF7F4BD3F85C3103F003035F
S113122015E0B3F5681F00F0D080B3F5781F7FF4A4
S11312307DAFFFF7E3F804462846FFF77DFB42E065
S1131240FFF7DCF8734BD3F80C31C3F308230133F5
S1131250B0FBF3F038BDFFF7D1F86E4BD3F818317B
S1131260F3E7FFF7CBF86B4BD3F80431EDE7FFF767
S1131270C5F8684BD3F80831E7E7FFF7BFF8654BCB
S1131280D3F81431C3F30423E1E76548FFF78EFE76
S1131290604BD3F82031C3F30343D840DAE7614805
S11312A0FFF784FE5B4BD3F8303103F00303F4E71C
S11312B05B48FFF77BFE574B0446D3F8200100F050
S11312C00F00FFF765F9B4FBF0F0C3E75448FFF7EC
S11312D06DFE504B0446D3F82001C0F30310F0E731
S11312E04F48FFF763FE4B4B0446D3F82001C0F38D
S11312F00230E6E7494867E74848FFF757FE454BA1
S11313000446D3F82801C0F30110DAE74348FFF795
S11313104DFE404B0446D3F82801C0F3013004309D
S1131320CFE7414850E73F484EE74048FFF79CFD70
S113133007283FF41FAF092803D1BDE83840FFF761
S11313405DB841F290413A48FFF7D4F8002081E7B4
S11313500120FFF79BFE2F4BD3F85C31C3F301430D
S113136075E73448FFF780FD0438062810D801A338
S113137053F820F0E9130000F91300009113000062
S1131380751100009113000091130000E513000093
S113139041F2F141D7E72848FFF766FD04380628F3
S11313A010D801A353F820F0E9130000F91300004A
S11313B0C513000075110000C5130000C51300001B
S11313C0E513000041F22351BDE71C48FFF74CFD33
S11313D0023809281AD8DFE800F01115070F191987
S11313E01919050B164BC6E6BDE83840FFF752B88D
S11313F0FFF750F840002DE7124BBCE6BDE838403B
S1131400FFF772B8BDE83840FFF768B841F27A5187
S113141099E700BF00400E40101000200300200098
S113142002001E00050024000400220006000E0035
S1131430882D00000A7B36000B7C38000C7F3A00B4
S11314401810002008100020014B1880704700BFBE
S11314501410002038B502280C4604D00D4842F67A
S11314602511FFF747F80C4D6B6AC3F30113012BE9
S11314700DD064B107484FF42551FFF73BF8074BF3
S1131480D5F8902033EA0202FAD1012038BD4FF496
S11314908003F5E7882D000000400E40FF3F473AE7
S11314A02DE9F047052804460F4691461FD83E4BC8
S11314B03E4A13F800A03E4B13F80080F1B93D4BAF
S11314C033F810301366012303FA08F8D2F8903089
S11314D013EA080FFAD1B9F1000F61D00125334A9C
S11314E005FA0AF5D2F890302B42FBD158E0BDE85A
S11314F0F047314842F60A01FEF7FCBF2F4B0228A1
S113150033F810604ED1536AC3F30113012B49D150
S11315102B4BDB6B5B0504D4274842F61901FEF71D
S1131520E9FF224A536A03F00303032B05D1536AEC
S113153023F0300343F020035362224D1B4BA84495
S11315401E664FEA8808D8F80030002BFBD0B9F1AA
S1131550000F25D05544AD002B68002BFCD0022C85
S11315601ED1EFB1114B5B6A03F00303032B03D0CD
S113157000212046FFF76EFF0F4842F69601FEF762
S1131580B9FF012200210220FFF78AFF0A4842F630
S11315900D11FEF7AFFF054B1E662B68002BFCD028
S11315A0BDE8F0870027C8E78C2E000000400E40FD
S11315B0922E0000A42E0000882D0000982E00001A
S11315C000300E408004F21038B511280C4613D0B8
S11315D000F00F0001380B2800F2EA81DFE810F078
S11315E029007100B2008D00AE00CC00E801DA00E1
S11315F00101260156019A01042913D1FEF74AFF7D
S11316000546B0B10021284600F076FB023C0C2CC4
S113161049D8DFE804F0514E353B48484848104863
S1131620414B5400052904D1B04B1D68B04B9D4279
S1131630E8D80025EAE70520062401221146FFF731
S11316402FFFFEF7F7FFFFF7ABFB0DB1FEF7AEFF81
S1131650A84B5C67FEF70CFF0446FEF7CFFEFEF7CF
S11316604BFFFEF7B1FF01462046FEF7F5FF1DB91B
S11316700121284600F040FBBDE83840FFF7A6BB37
S11316809D48FEF739FF02200446D6E79A48FEF744
S113169033FF01240320D0E742F27C11BDE8384037
S11316A09648FEF727BF42F28111F7E7032005248D
S11316B0C3E701200324C0E700200424BDE7072476
S11316C0BFE7062940D18D488D4D4FF40751FEF7F1
S11316D011FF8A4842F2C811FEF70CFF874842F214
S11316E0D011FEF707FFFEF789FEFEF705FF854BD5
S11316F00122C3F80026032329E00629824DE8D0FD
S1131700013C0B2C33D801A353F824F075170000C7
S113171053170000611700006F1700006F170000D7
S1131720E71600006F1700006F1700006F17000026
S11317306F1700006F1700004D1700000629734D46
S1131740DED1CBE7724DDBE76D4DD9E704232B6087
S113175038BD012211460020FFF7A2FE0223F6E75E
S1131760012211461046FFF79BFE0123EFE742F2E8
S1131770FB1193E70023EAE7072904D0092906D0DF
S113178042F285218AE75B4B00221A67E0E7594B56
S11317900122FAE74C1E072C1ED8DFE804F0201DB6
S11317A01D161D1D0F0403225249D1F85C3123F08C
S11317B0300343EA0213C1F85C31C9E70122114640
S11317C00420FFF76DFE0122EEE7012211460220FC
S11317D0FFF766FE0222E7E742F2E3215EE700221A
S11317E0E2E74C1E072C1CD8DFE804F01E1B1B1478
S11317F01B1B0D0403223F49D1F85C3123F4401331
S113180043EA0253D7E7012211460420FFF748FEBA
S11318100122F0E7012211460220FFF741FE0222D5
S1131820E9E742F2063139E70022E4E70C1F062C0F
S113183029D8DFE804F01304281A282821000122FB
S113184011460320FFF72CFE00222A49D1F860310B
S113185023F003031343C1F8603179E701221146F1
S11318600220FFF71DFE0122EFE7012211460420AA
S1131870FFF716FE0222E8E7012211460520FFF7D2
S11318800FFE0322E1E742F22D3107E70C1F062C7D
S113189029D8DFE804F01304281A2828210001229B
S11318A011460320FFF7FCFD00221249D1F86431F0
S11318B023F003031343C1F8643149E701221146BD
S11318C00220FFF7EDFD0122EFE70122114604207B
S11318D0FFF7E6FD0222E8E7012211460520FFF7A3
S11318E0DFFD0322E1E742F25431D7E6081000207D
S11318F0002D310100400E400148E801882D000010
S113190080400E400010C8438C400E4088400E407A
S113191084400E408C1E092C47D8DFE804F0383F81
S1131920143146464646051B012211460520FFF7A1
S1131930B7FD00232049D1F8F02122F00702134318
S1131940C1F8F03104E7012211460220FFF7A8FD97
S11319500123EFE7FEF79EFD184B984204D918487F
S113196042F26F31FEF7C6FD134A536A43F008038F
S11319705362012211460220FFF792FD0223D9E7A8
S1131980012211460320FFF78BFD0323D2E7012236
S113199011460020FFF784FD0423CBE70122114602
S11319A01046FFF77DFD0523C4E742F28E3175E64C
S11319B042F2BA3172E600BF00400E4040787D0129
S11319C0882D000038B504461120FFF74DFA04288D
S11319D004D11F4842F2A561FEF78CFD01220021CB
S11319E00220FFF75DFDE37A022B2AD8194AD25C64
S11319F0194D6B6A23F0030313436B62FEF74AFD30
S1131A00164B2288984294BF082000206B6A23F06A
S1131A1008031843A388686243EAC223EB622B6B72
S1131A20E2881B0D1B051343628843EAC2232B6320
S1131A30637A227A1B0143EA0233A27A13436B636B
S1131A4038BD034842F2B961FEF754FD0022CFE7E6
S1131A50882D0000B02E000000400E4040787D012B
S1131A6070B505461120FFF7FFF9022804D10F488D
S1131A7042F26371FEF73EFD0D4E0E4BB26B2C78B5
S1131A8013401C436B7844EAC324AB7844EA0364F0
S1131A90EB7844EA0324B36BA34205D0002101226E
S1131AA00846FFF7FDFCB46370BD00BF882D00003D
S1131AB000400E4080E4FFF8EFF3108072B67047E8
S1131AC000B962B67047EFF31180602383F3118885
S1131AD0704780F311887047034BD86B80F0400047
S1131AE0C0F38010704700BF00300E4038B542EAA2
S1131AF00323B3F5007F05460C463ED019D8B3F551
S1131B00807F36D00AD883B3012B21D01F4840F6FA
S1131B10F211FEF7EFFC002213461FE040F201121F
S1131B209342F3D11A4BD3F824321A0EC3F307436A
S1131B3014E0B3F5407F24D040F20132934210D038
S1131B4040F201229342E1D1114BD3F8283202E052
S1131B500F4BD3F82432C3F30722DBB22B6022608D
S1131B6038BD0B4BD3F82832DFE7094BD3F81C32CE
S1131B70F1E7074BD3F81C32D7E7054BD3F82032F3
S1131B80E9E7034BD3F82032CFE700BFEC2E000087
S1131B900081E00F08B5FFF79FFF20B1024AD2F899
S1131BA0C830002BFBD108BD0000C64310B51A4B4A
S1131BB00228D3F830320C4612D0032813D001285F
S1131BC014BFDBB2C3F307231B0323F47042ECB945
S1131BD05AB140F681111148FEF78CFC002010BD6B
S1131BE0C3F30743F0E71B0EEEE70D49CA6E22F478
S1131BF070421343CB660120F1E70949D1F8EC2088
S1131C0022F470421343C1F8EC30F4E7002AF4D014
S1131C1040F68D11DFE700BF0081E00FEC2E0000DD
S1131C2000300E4070B50378124A002B4378946953
S1131C3014BF04260026002B837814BF0225002538
S1131C40002B037924F03F0443EA0403C47814BF4F
S1131C5008210021012C08BF43F0010333432B4327
S1131C600B4393611368417923F4403343EA0143FE
S1131C70136070BD00300E40F8B504460F46FFF700
S1131C802BFF78B3FFF786FF174B5B68C3F3014361
S1131C909C4227D0154BD3F80061FEF7AFFB022C12
S1131CA005460FD1124BC6F3042606FB00069E42DE
S1131CB004D910484FF4E361FEF71CFC02212846C6
S1131CC0FEF7CAFCC4F1020210239340064A1361D2
S1131CD00FB1FFF75FFF2CB921462846BDE8F84055
S1131CE0FEF7BABCF8BD00BF00300E4000400E4005
S1131CF0002D3101EC2E000013B50246FFF7ECFE77
S1131D00C8B152B90D4B0191D3F80041FEF776FBEF
S1131D10C4F30422019902FB0002094B1B7843B16E
S1131D20084B9A4205D8022002B0BDE81040FFF7E4
S1131D30A3BF0020F8E702B010BD00BF00400E4072
S1131D40AA100020002D310110B5174B4AF6E852B5
S1131D50596B5A639A6FD407FCD41B6C13F00303BA
S1131D601EBF124A0124C2F8B44A834216D00E4B55
S1131D709A6FD207FCD41A6C22F0030202431A644D
S1131D809A6F12F00102FBD10038084C18BF0120F1
S1131D900129C4F8B40A08BF5A6303E010B9034B1D
S1131DA0C3F8B40A10BD00BF00300E400000C643A3
S1131DB02DE9F04F89B0A0F5E1630024B3F5966FE7
S1131DC0CDE90244CDE90444CDE9064406468A46F9
S1131DD0934605D940F67B315548FEF78BFBA3E0CB
S1131DE0B0F5E16F534B8CBF0122002249D1D3F8E7
S1131DF01832C3F30721DBB2079104934FF416752D
S1131E004FF4966748E0BBF1000F0ED0D9F85C2080
S1131E1022F4FE4222F00202B6F5E16F42EA012208
S1131E2018BF02200243C9F85C20BAF1000F26D083
S1131E3020460021FFF7BAFE044610B940F6D83117
S1131E40CAE701214046FFF7B1FE044610B94FF43A
S1131E503E61C1E7384A536EBD4238BF3D4623F464
S1131E60FF73E72D23F0010328BFE725B6F5E16FE3
S1131E7018BF43F0010343EA4503536654E00124C9
S1131E8052E0D3F81832190EC3F3074307910493B1
S1131E904FF496654FF4E167DFF89C90D9F84C4015
S1131EA00192C4F30174234605A902A8FFF71EFE9C
S1131EB0D9F8EC30019AC3F30128434606A903A8D4
S1131EC0FFF714FE049BF01B079FF91A4143B1FB73
S1131ED0F5F299182CBF012300238F421ED3EBB9CE
S1131EE0069A039FD31B4343B3FBF5F3FF182CBFA0
S1131EF001230023BA4211D383B9059B029AA3EBB1
S1131F00020C00FB0CF0B0FBF5F555192CBF0120B9
S1131F100020AB4202D300283FF475AF044840F6DA
S1131F20C931FEF7E7FA0024204609B0BDE8F08F76
S1131F30EC2E00000081E00F00300E4008B5334A5B
S1131F40136FD16C11F0010F03F0060344D0002B82
S1131F5042D0132857D9143813288CBF10230823D0
S1131F602A49013BCA6C180322F47F4240EA032346
S1131F701343CB64264BCA6C1B88C2F30322283359
S1131F80013202EB820003EB5303B3FBF0F3C86CA2
S1131F90013B072B28BF072320F0EE6040EA0363D0
S1131FA043F48013CB641B4BB3F90030002B12DBDA
S1131FB003F12800C0F34E030344500800EB42022F
S1131FC0B3FBF2F20B6D072A28BF072223F070033C
S1131FD043EA02120A6508BDD16C01F001011943FC
S1131FE004D109280FD90A380928B6E7D26CD207D8
S1131FF002D50BB92728B0E7074840F61E41FEF783
S113200079FA0023ACE70423AAE700BF00300E40AE
S1132010A6100020A8100020EC2E000010B50C4BD8
S1132020D3F88039044633B9012804D9094840F665
S11320303C41FEF75FFA084A136F23F0070323437A
S11320401367064BBDE810401888FFF777BF00BF41
S11320500000C643EC2E000000300E40A410002007
S113206038B50389C82B044604D951484FF422617A
S1132070FEF740FAA28823899A4204D94C4840F6D4
S11320802121FEF737FAB4F90C30C82B04DD484897
S113209040F62221FEF72EFA6378012B55D1A3884E
S11320A0C82B04D940F626214148FEF723FAE288DA
S11320B042F210739A4204D93D4840F63321FEF7A8
S11320C019FAE3884A2B48D9B3F5FA7F47D340F687
S11320D0C312934294BF4FF000524FF0405235491F
S11320E0B4F90C00CB6C23F0405323F00103002817
S11320F0A8BF43F001031343CB64D1F8EC30A288AA
S113210043F44073C1F8EC302B4B1A80CB6E43F090
S11321108073CB66294BD3F8800900B10420FFF704
S11321207DFF274B21891980264BB4F90C20A08808
S11321301A80FFF703FFA37BA3B1012B23D01C4814
S113214040F63211FEF7D6F90FE0022BAFD1A38887
S11321500A2BACD940F62B21A6E70022BFE74FF0AB
S11321608052BCE7134B184A9A65012260881146D5
S1132170FFF71EFE054648B90D4840F66A21FEF7F2
S1132180B9F9284638BD0B4B104AEDE7094AD36B21
S113219043F48063D3636078FFF7D6FDA37AA3F199
S11321A0200253425341054AC2F89437E9E700BF7D
S11321B0EC2E000000300E40A41000200000C643A6
S11321C0A6100020A810002077402057372110B710
S11321D038B5082804460D4604D84FF6FF73CB40A3
S11321E0DB0704D4084840F22D41FEF783F930237D
S11321F00C2013FB040000F18C40012100F50820A1
S113220001FA05F5056038BD3A2F000038B50828F5
S113221004460D4604D84FF6FF73CB40DB0704D4C5
S1132220084840F2FE31FEF765F930230C2013FB19
S1132230040000F18840012100F5082001FA05F5A9
S1132240056038BD3A2F000070B505460E461446A9
S1132250FFF732FC296881EA040202EA06044C40D2
S11322602C60BDE87040FFF72BBC0000F8B50828CF
S113227005460C4616461F4604D84FF6FF73CB405E
S1132280DB0704D419484FF4B071FEF733F926B1D3
S113229021462846CFB1FFF79BFF05EB4503072CEA
S11322A04FEA03134FF00F0112D8A00006FA00F210
S11322B081400F481844FFF7C7FFAEB921462846AE
S11322C077B1BDE8F840FFF783BFFFF79FFFE4E76E
S11322D0A4F10800800006FA00F281400548E9E70D
S11322E0BDE8F840FFF792BFF8BD00BF8A2F000099
S11322F0048008400880084038B5022804460D468A
S113230003D911484C21FEF7F5F86B791F2B03D93B
S11323100D484F21FEF7EEF8AB786A789B0143EA4B
S113232082032A781343EA7843EA02132A7943EAB8
S1132330C2236A7943EA0233AA79043443EA424362
S11323402401024A135138BDD92F00000020064051
S1132350014B1860704700BF0000C44270B542785A
S113236001790378002A827814BF04260026002A03
S1132370C27814BF10250025002A42794FEA0232A0
S113238042EA012242EA0302837942EA8332C379B0
S113239014BF20240024002B037A42EA034343EAB7
S11323A00603427A43EA050314BF4FF400410021B7
S11323B02343002A14BF4FF4003200220B4313437B
S11323C0014A136070BD00BF002006407FB5094B71
S11323D06A4603F11006154618685968144603C482
S11323E00833B3422246F7D12846FFF739FE0020CE
S11323F004B070BD2830000013B5684600240223E1
S113240000948DF804408DF80530FFF70BFC20464E
S113241002B010BD1FB5124A1068516801AB03C366
S1132420906818600F4BD3F8B42012030FD4D3F87C
S1132430B830C3F308030C48ADF80630FEF730F8A3
S113244001A8FFF7BFFA002005B05DF804FB074BB5
S11324501B884FF6FF72934208BF8423EBE700BF4B
S1132460383000000081E00F80F0FA020001E00F34
S113247007B5084B18680190462301A88DF804306D
S1132480FFF7EEFA6420FEF7DFFF002003B05DF8EB
S113249004FB00BF4430000010B50C480C4C6FF036
S11324A00402A02112F0800FD3B21BBF03F00F036C
S11324B0043BA3181B1802F101020CBF83F800139C
S11324C01976462AEED1002010BD00BF00ED00E0D1
S11324D000E100E030B50F4C41612368ABB92060E6
S11324E0836011E0891A9A6841611D462AB1134636
S11324F05A698A42F6D955B11A46A86013468360D0
S113250013B15A69511A596130BD0025F0E72060B2
S1132510F5E700BFD410002010B500F0B7F90A4C5D
S11325200A4B19682368C31A01B10BB9206010BDA6
S11325304A699A422EBFD21A9B1A00224A6128BFC6
S113254000238968F0E700BFB8100020D4100020F1
S113255038B5134D2B685B6993B1124A1468022095
S11325601C4400F0C7F9204600F096F90E492A6889
S113257000230B70D088800709D501230B7038BD68
S1132580022000F0B7F9022000F0DAF9EEE79268D1
S1132590002AF4D050690344012BEBD9EFE700BFC4
S11325A0D4100020B8100020C01000200C490B6883
S11325B000227BB183420AD183687AB19360836835
S11325C01BB15A6941690A445A61002070471A468E
S11325D09B68EEE70028EFD0022070470B60EEE71F
S11325E0D4100020F8B51F4FFFF76DFA3C7806466B
S11325F0002C32D11C4B1C601C4B1C601C4B1C80DF
S113260000F000F9012000F075F900F0B9F9194B58
S11326100546186020B93046FFF75BFA2320F8BD61
S1132620154B02461C6000202346012100F0CCF922
S1132630124B00201A6001212A46234600F0C4F9F7
S11326400F4B2A46186040F2E73123460D4800F04C
S1132650BBF90D4B186001233B703046FFF739FA84
S11326600020DCE7B4100020D4100020B8100020B3
S1132670C2100020D0100020C8100020B01000208C
S1132680AC10002018FCFFFFBC1000202DE9F84F0F
S1132690C207044620D5514B5149524A1D6812685D
S11326A00B681344AB42504A0B6004D310685B1BA5
S11326B0013010600B604D49136809680B441360C6
S11326C04B4A138801339BB21380FFF725FF494B14
S11326D01B680BB1FFF73CFFA3077CD5FFF7F3F9A9
S11326E00546FFF719FF4FF0000A424FDFF80C913F
S11326F05646D0463C680CB163698BB13E4B002210
S1132700012E1A7003D1BAF1020F08BF1E70002CFB
S113271051D0FFF71DFF2846BDE8F84FFFF7D9B9A0
S113272023461A792179914288BF1C469B6813B1CC
S11327305A69002AF5D02846FFF7CBF9D4F810A03F
S1132740BAF1000F3BD000F0A1F8A269851AEB178B
S1132750AA4578EB030333DA23691344A361012206
S11327602369D3B1CAB9EB17BAEB050563EB43038D
S1132770002B04DA40F209414846FDF7BBFEFFF79F
S1132780A2F9294682462046FFF7A4FEA3692269DE
S11327901344A3615046FFF79CF9E368B4F806A01C
S11327A0013613B1216820469847FFF78CF9054696
S11327B0FFF7B2FE9EE7022000F0AAF8ABE7554609
S11327C0FFF781F983462046FFF7F0FE5846FFF7EE
S11327D080F90022C4E7BDE8F88F00BFD0100020C4
S11327E0C4100020B0100020C8100020AC1000203D
S11327F0C2100020D4100020CC100020483000006B
S11328000020704710B586B01C4B1868596803AA9D
S113281003C21989D3F80A0011800024DA890190CF
S11328201B7C1748ADF8082001218DF80A30FDF70C
S11328304DFF8DF80C40FFF7E3FF8DF8100003A85F
S1132840FFF78CFD01A901208DF80440FFF754FD2A
S11328500C4A536A23F4FF6323F00703536240F2E4
S1132860FF73136201209460FFF772FD064B4FF073
S11328700042C3F880211A6006B010BDAA300000DF
S1132880A00914000020064000E100E0014B986814
S1132890704700BF0020064010B50446FFF70CF94E
S11328A0124A9368516D9269520704D4CA1A032AD2
S11328B001D88B420DD1E21A022A98BFDC1C0B4BC3
S11328C0B4F1FF3F38BF013C5C655A6A42F0040230
S11328D05A62FFF7F5F8064A137833B103490B6DD2
S11328E043F002030B650023137010BD0020064063
S11328F01C1000208207054A00F00103516A48BFFA
S113290043F004030B435362704700BF00200640AA
S1132910820700F0010309D5074A01211170074914
S11329200A6D22F0030243F004030A6503494A6A6C
S113293022EA03034B6270471C100020002006406B
S1132940830742BF014B0422DA617047002006402E
S113295010B5FFF7B8F8094A93690446590703F01C
S1132960010003F0070348BF40F002001362FFF7C1
S11329708DFE2046BDE81040FFF7ABB800200640AE
S113298008B50448FEF7B4FB0346FFF739FF23FA02
S113299000F008BDA009140008B5FDF795FCFDF78B
S11329A0D5FCFDF7D4FCFDF7D9FCBDE80840FDF7E4
S11329B0D6BC08B5FDF7D4FCFDF7D3FCFDF7D2FC7B
S11329C0BDE80840FDF7CFBC53B94AB9002908BF98
S11329D000281CBF4FF0FF314FF0FF3000F074B9F6
S11329E0ADF1080C6DE904CE00F006F8DDF804E062
S11329F0DDE9022304B070472DE9F047089D044641
S1132A008E46002B4DD18A42944669D9B2FA82F29D
S1132A1052B101FA02F3C2F1200120FA01F10CFAD9
S1132A2002FC41EA030E94404FEA1C48210CBEFB11
S1132A30F8F61FFA8CF708FB16E341EA034306FB9A
S1132A4007F199420AD91CEB030306F1FF3080F029
S1132A501F81994240F21C81023E63445B1AA4B276
S1132A60B3FBF8F008FB103344EA034400FB07F718
S1132A70A7420AD91CEB040400F1FF3380F00A8159
S1132A80A74240F207816444023840EA0640E41B4E
S1132A9000261DB1D4400023C5E900433146BDE8FA
S1132AA0F0878B4209D9002D00F0EF800026C5E99C
S1132AB0000130463146BDE8F087B3FA83F6002EB4
S1132AC04AD18B4202D3824200F2F980841A61EB2C
S1132AD0030301209E46002DE0D0C5E9004EDDE74A
S1132AE002B9FFDEB2FA82F2002A40F09280A1EB32
S1132AF00C014FEA1C471FFA8CFE0126200CB1FB87
S1132B00F7F307FB131140EA01410EFB03F088427F
S1132B1008D91CEB010103F1FF3802D2884200F20C
S1132B20CB804346091AA4B2B1FBF7F007FB10119E
S1132B3044EA01440EFB00FEA64508D91CEB04043C
S1132B4000F1FF3102D2A64500F2BB800846A4EB97
S1132B500E0440EA03409CE7C6F12007B34022FA82
S1132B6007FC4CEA030C20FA07F401FA06F31C43B1
S1132B70F9404FEA1C4900FA06F3B1FBF9F8200CBE
S1132B801FFA8CFE09FB181140EA014108FB0EF004
S1132B90884202FA06F20BD91CEB010108F1FF3A54
S1132BA080F08880884240F28580A8F10208614460
S1132BB0091AA4B2B1FBF9F009FB101144EA01416E
S1132BC000FB0EFE8E4508D91CEB010100F1FF3419
S1132BD06CD28E456AD90238614440EA0840A0FBB1
S1132BE00294A1EB0E01A142C846A64656D353D087
S1132BF05DB1B3EB080261EB0E0101FA07F722FAAB
S1132C0006F3F1401F43C5E9007100263146BDE8D3
S1132C10F087C2F12003D8400CFA02FC21FA03F336
S1132C20914001434FEA1C471FFA8CFEB3FBF7F0B7
S1132C3007FB10360B0C43EA064300FB0EF69E42DC
S1132C4004FA02F408D91CEB030300F1FF382FD275
S1132C509E422DD9023863449B1B89B2B3FBF7F61D
S1132C6007FB163341EA034106FB0EF38B4208D9F6
S1132C701CEB010106F1FF3816D28B4214D9023E37
S1132C806144C91A46EA004638E72E46284605E755
S1132C900646E3E61846F8E64B45A9D2B9EB020826
S1132CA064EB0C0E0138A3E74646EAE7204694E7B6
S1132CB04046D1E7D0467BE7023B614432E73046E9
S1132CC009E76444023842E7704700BF08B5074B80
S1132CD0044613B10021AFF30080054B1868836AE2
S1132CE003B19847204600F031F800BF000000000F
S1132CF0BC30000070B50D4D0D4C641BA4100026B3
S1132D00A64209D10B4D0C4C00F022F8641BA41010
S1132D100026A64205D170BD55F8043B98470136FC
S1132D20EEE755F8043B98470136F2E7801000209F
S1132D3080100020801000208410002002440346EC
S1132D40934200D1704703F8011BF9E7FEE700BF87
S1132D50F8B500BFF8BC08BC9E467047F8B500BF84
S1132D60F8BC08BC9E4670470024F4000000000034
S1132D7000000000000000000048E801000000001E
S1132D80006CDC0280F0FA022F55736572732F61B8
S1132D906C6961776F6C6B656E2F53696D706C69CC
S1132DA06369747953747564696F2F53444B732F3B
S1132DB06765636B6F5F73646B2F706C6174666FB0
S1132DC0726D2F656D6C69622F7372632F656D5F11
S1132DD0636D752E63002F55736572732F616C6973
S1132DE061776F6C6B656E2F53696D706C69636985
S1132DF0747953747564696F2F53444B732F6765EB
S1132E00636B6F5F73646B2F2F706C6174666F728A
S1132E106D2F636F6D6D6F6E2F696E632F736C5FB3
S1132E20636F6D6D6F6E2E68002F55736572732F0F
S1132E30616C6961776F6C6B656E2F53696D706C33
S1132E40696369747953747564696F2F53444B7360
S1132E502F6765636B6F5F73646B2F2F706C617486
S1132E60666F726D2F656D6C69622F696E632F6575
S1132E706D5F636D752E68000403020D0A0E030274
S1132E80010C0302060C0A040B05020309070301E3
S1132E90050B08060200040A0001400004000100BA
S1132EA01000000400028000080002002000000856
S1132EB00001030080A81201000000000051250257
S1132EC00001000080F937030002000000A24A0458
S1132ED000030000C0CF6A0002000000809FD500FC
S1132EE002010000002D3101020200002F5573651C
S1132EF072732F616C6961776F6C6B656E2F5369A8
S1132F006D706C696369747953747564696F2F5358
S1132F10444B732F6765636B6F5F73646B2F706CC7
S1132F206174666F726D2F656D6C69622F73726365
S1132F302F656D5F656D752E63002F557365727314
S1132F402F616C6961776F6C6B656E2F53696D705F
S1132F506C696369747953747564696F2F53444B56
S1132F60732F6765636B6F5F73646B2F2F706C6176
S1132F7074666F726D2F656D6C69622F696E632F55
S1132F80656D5F6770696F2E68002F557365727386
S1132F902F616C6961776F6C6B656E2F53696D700F
S1132FA06C696369747953747564696F2F53444B06
S1132FB0732F6765636B6F5F73646B2F706C6174E1
S1132FC0666F726D2F656D6C69622F7372632F6506
S1132FD06D5F6770696F2E63002F55736572732F71
S1132FE0616C6961776F6C6B656E2F53696D706C82
S1132FF0696369747953747564696F2F53444B73AF
S11330002F6765636B6F5F73646B2F706C6174669D
S11330106F726D2F656D6C69622F7372632F656DAE
S11330205F727463632E63000002080705000A00E0
S1133030C8000000FFFF01000000000000060001BE
S11330400D080E00000207002F55736572732F617F
S11330506C6961776F6C6B656E2F53696D706C6909
S11330606369747953747564696F2F53444B732F78
S11330706765636B6F5F73646B2F706C6174666FED
S1133080726D2F736572766963652F736C656570F5
S113309074696D65722F7372632F736C5F736C65E3
S11330A0657074696D65722E63000100000005008F
S11330B000000000020000030000000020100020B7
S11330C000000000000000000000000000000000FC
S11330D000000000000000000000000000000000EC
S11330E000000000000000000000000000000000DC
S11330F000000000000000000000000000000000CC
S113310000000000000000000000000000000000BB
S113311000000000000000000000000000000000AB
S10B312078D0FF7F01000000DC
S10F3128343100000010002022000000E0
S1133134C0EA210180F0FA02C0EA21010080000003
S1133144C0EA2101FFFF0000006CDC020100000062
S113315400000000E030000000310000C030000036
S11331640000000000000000000000000000000057
S11331740000000000000000000000000000000047
S11331840000000000000000000000000000000037
S11331940000000000000000000000000000000027
S11331A40000000000000000000000000000000017
S10B31B47D0100005901000037
S903039564
