:10000000001000208D030000890300008903000018
:1000100089030000890300008903000089030000B0
:1000200089030000890300008903000089030000A0
:100030008903000089030000890300008903000090
:100040008903000089030000890300008903000080
:100050008903000089030000890300008903000070
:100060008903000089030000890300008903000060
:100070008903000089030000890300008903000050
:100080008903000089030000890300008903000040
:100090008903000089030000890300008903000030
:1000A0008903000089030000890300008903000020
:1000B0008903000089030000890300008903000010
:1000C0008903000089030000890300008903000000
:1000D00089030000890300008903000089030000F0
:1000E00089030000890300008903000089030000E0
:1000F00089030000890300008903000089030000D0
:1001000089030000890300008903000089030000BF
:1001100089030000890300008903000089030000AF
:10012000890300008903000089030000890300009F
:10013000890300008903000089030000890300008F
:10014000890300008903000089030000890300007F
:10015000000000000000000010B5054C237833B902
:10016000044B13B10448AFF300800123237010BD8A
:100170007C10002000000000F420000008B5034BB4
:100180001BB103490348AFF3008008BD0000000025
:1001900080100020F4200000A3F5803A704700BFD3
:1001A000174B002B08BF134B9D46FFF7F5FF0021AF
:1001B0008B460F461348144A121A01F039FE0E4BB3
:1001C000002B00D098470D4B002B00D09847002003
:1001D000002104000D000D48002802D00C48AFF3A8
:1001E000008001F001FE2000290000F037F801F046
:1001F000E7FD00BF00000800000000000000000054
:10020000001000207C100020A01000200000000042
:100210000000000010B50E48012100F047FA0D481B
:10022000012100F043FA01230A220021022001F0FB
:10023000E5FC012319460A22022001F0DFFCBDE89B
:100240001040012304220C21002001F0D7BC00BF84
:100250000012090000550A007047704708B501F008
:1002600097FDFFF7D7FFFFF7F7FF00F005F801F064
:100270009CFDFFF7F2FFFAE77047704708B50421CD
:10028000112000F071FE0B48012100F00FFA0A481E
:10029000022100F069FE0948022100F065FE0848CD
:1002A000022100F061FE0748022100F05DFE0020FF
:1002B00008BD00BF30053E0002001E000300200004
:1002C000040022000500240008B54FF080430122FD
:1002D0005A6403F564231B49D3F8B02042F00102AD
:1002E000C3F8B020D3F8E02042F00802C3F8E020C1
:1002F0004A6B42F480524A63D3F8E02022F00802AD
:10030000C3F8E020D3F8B02022F00102C3F8B020F7
:100310000D4AD2F8A43143F4F843C2F8A43101F0F5
:1003200019FD00F02BF801F0AFFC01F0D1FC01F059
:10033000FDFCFFF7A3FF01F0BDFCBDE8084000F0A5
:1003400011B800BF0040054000300E40704700F07B
:1003500006B87047704770477047704770470F2066
:100360007047000008B50448012100F09FF9BDE87E
:100370000840FFF782BF00BF00550A000148012175
:1003800000F094B900550A00FEE7000008B500F03F
:1003900093F8124B12498B4212D3124B1249002090
:1003A0008B4218D3FFF7FCFE186850F822405868BB
:1003B00040F82240013298688242F5D30C33EAE7D4
:1003C0000022F8E71C6844F8220001325C68A2426F
:1003D000F8D30833E4E70022F8E700BFFC20000070
:1003E0000821000008210000082100000048704793
:1003F00000A24A04174AD2F8943003F00703023BE4
:10040000042B1FD8DFE803F00620031A0800124B64
:100410001B680AE0114BFBE79368C3F30443073BF7
:10042000072B14D80E4A52F823300A4AD2F800019A
:10043000C0F304200130B3FBF0F07047094B1B6898
:100440005B08F2E7074BE3E74FF40043EDE70023D7
:10045000EBE700BF00400E400C100020041000200D
:100460005C1E00000810002008B5FFF7C3FF054B15
:10047000D3F80831C3F308230133B0FBF3F0024B88
:10048000186008BD00400E4000100020014B1868A5
:10049000704700BF04100020054B1860054BD3F8CF
:1004A000943003F00703022B01D1FFF7DDBF704743
:1004B0000410002000400E40044B054A9A60D3F817
:1004C000882042F47002C3F88820704700ED00E0F5
:1004D00000000000FEE700000C4B984210D90C4BC6
:1004E000984210D9022201230A490B640A49D1F823
:1004F000003123F0407343EA0263C1F800317047D2
:1005000000221346F0E70122FBE700BF0048E801A4
:100510000090D0030000C84300400E4038B54FF0B3
:10052000804300225B68104BC9B21C461D798D4286
:1005300002D11D68854213D20132072A03F1080354
:10054000F4D10A4841F2CE51FFF7C4FF03224FF025
:1005500080414B6823F0407343EA02634B6038BD2F
:1005600004EBC2025279F2E7A81F00007C1E0000D3
:1005700010B51F28044604D903484FF4B371FFF7A0
:10058000A9FF0120A04010BDCA1E0000044BDB6B78
:100590005B0604D4034AD2F8C830002BFBD1704765
:1005A00000300E400000C64308B5FFF7EFFF024BD6
:1005B0005868C0F3014008BD00300E40044BD3F82A
:1005C0004421D20703D4D3F840211042FBD1704715
:1005D00000400E4038B5B0F5004F054604D30C4836
:1005E00040F61C61FFF776FF6C1C14BFB4FA84F46C
:1005F0002024C4F11F042046FFF7BAFF0138A842A7
:1006000004D0034840F62361FFF764FF204638BD5D
:100610001D1F000070B54FF0804441F67136256C07
:100620002664FFF7E3FE0021FFF778FFADB2B54285
:100630001CBF0023236470BD70B54FF0804341F6AA
:1006400071321E6C1A6405460C46FFF767FF134AA9
:10065000134B022C08BF13469D42124AB6B209D969
:100660004FF08C43C3F800210F4A954207D84FF052
:10067000884306E04FF08843C3F80021F7E7002CD9
:10068000F5D14FF480521A6041F671339E421EBF7D
:100690004FF0804300221A6470BD00BF0024F400B4
:1006A00080D543020202020080F0FA0238B5C0F39E
:1006B0000322013A03460E2A3AD8DFE802F040430B
:1006C0003939081B1E212536292E391833001F4CB5
:1006D0000020C3F3043508B1FFF770FF04F1424472
:1006E00004F5801405EBC404A400216038BD184C47
:1006F0000020EEE7174C0120EBE7174C1020E8E74D
:10070000164C4FF48070E4E7154C4FF48030E0E76E
:10071000144C81F001010020DBE7134C81F0010152
:100720000020D6E7114C0020D3E7114C0020D0E781
:10073000BDE838400F4841F66A31FFF7CBBE0E4C9A
:100740000020C6E70D4C0020C3E700BFB0400E40BC
:10075000C4400E40E0400E40E8400E40EC400E40E9
:10076000F0400E4060410E4064410E40F0410E40AA
:1007700050410E407C1E000000400E40C0400E4024
:1007800010B5C0F30313013B0C460B2B00F218828B
:10079000DFE813F00C0034004500600074008800AE
:1007A0009C00BC006101CE01DA0102021F2904D9BC
:1007B000C44841F68F51FFF78DFEFFF72BFFC2486B
:1007C000FFF78AFE00F00AFAC04BD3F8001121F4BB
:1007D000F85141EA0424C3F80041FFF745FE0446FE
:1007E000FFF7E2FE01462046FFF726FFFFF702FE75
:1007F000FFF772FEBDE8104000F006BA1F2904D9C9
:10080000B04841F6A551FFF765FEB04BD3F814117F
:1008100021F4F85141EA0424C3F8144110BD4B1EE1
:10082000B3F5004F0DD2B4FA84F1A84BD3F80041D0
:10083000C1F11F0124F0407444EA0164C3F800418F
:10084000ECE7A34840F62C51FFF744FE002CEAD118
:100850002021EAE7B1F5007F04D39A4841F6B2516E
:10086000FFF738FE994BD3F80C1121F4FF3121F436
:10087000807141EA0421C3F80C11CFE7B1F5007F84
:1008800004D3904841F6B951FFF724FE8F4BD3F8BB
:10089000181121F4FF3121F4807141EA0421C3F8D9
:1008A0001811BBE7B1F5007F04D3864841F6C1516A
:1008B000FFF710FE854BD3F81C1121F4FF3121F412
:1008C000807141EA0421C3F81C11A7E7B1F5007F4C
:1008D00004D37C4841F6C851FFF7FCFDFFF79AFEB0
:1008E0007A4BD3F8081121F4FF3121F4807141EAE9
:1008F0000421C3F80811FFF7B7FD0446FFF754FEC3
:1009000001462046BDE81040FFF796BE714B984265
:1009100074D010D8704B984246D0704B984257D044
:10092000A3F57033984226D041F64461BDE81040EB
:100930006448FFF7CFBD6A4B984205D0694B984297
:1009400073D0694B9842EFD1B4F5004F04D95D489C
:1009500041F63661FFF7BEFD2046FFF73BFE01463C
:100960000420FFF72BFE594AD2F8203123F4E0434C
:1009700043EA013315E0B1F5004F04D9514841F67F
:10098000DA51FFF7A7FD2046FFF724FE01460420B9
:10099000FFF714FE4D4AD2F8203123F4702343EAC6
:1009A0000143C2F8203139E7022904D941F6EB515D
:1009B0004448FFF78FFD4FF48020FFF7FFFD434BC6
:1009C000D3F8301121F003010C43C3F8304125E77F
:1009D000B1F5004F04D93B4841F60861FFF77AFDB5
:1009E0002046FFF7F7FD01460420FFF7E7FD374AF1
:1009F000D2F8203123F00F030B43D2E7B1F5004FBB
:100A000004D9304841F61761FFF764FD2046FFF72F
:100A1000E1FD01460420FFF7D1FD2C4AD2F8203138
:100A200023F0F00343EA0113BBE7082904D9254862
:100A300041F62661FFF74EFD2046FFF7CBFD01464C
:100A40000420FFF7BBFD214AD2F8203123F4407384
:100A500043EA0123A5E7254B98421DD003F5A113D6
:100A6000984247D0224B98425FD1082904D91548B3
:100A700041F64D61FFF72EFD2046FFF7ABFD014625
:100A80004020FFF79BFD114AD2F8283123F00303E1
:100A90000B43C2F82831C1E6082904D9094841F6B8
:100AA0005C61FFF717FD2046FFF794FD01464020EB
:100AB000FFF784FD054AD2F8283123F0300343EADA
:100AC0000113E6E77C1E00000148E80100400E40EB
:100AD0001D1F000080161800A009140080061600D3
:100AE00000362C0080262E0080002A0090171C0063
:100AF00090071A00A1F10F03702B04D9324841F678
:100B00006B61FFF7E7FC2046FFF764FD01464020DC
:100B1000FFF754FD2D4AD2F82801043920F4405043
:100B200040EA0130C2F8280178E641F67A61FDE634
:100B3000274B984205D102297FF63DAF41F68461EB
:100B400036E741F69461F1E6224B984205D0224BFC
:100B5000984212D041F6AD61E8E6032904D91A485B
:100B600041F69F61FFF7B6FC184BD3F85C1121F0FA
:100B700003010C43C3F85C4150E6032904D9124831
:100B800041F6A761FFF7A6FC104BD3F85C1121F4E6
:100B9000403141EA0444EDE7B1F5007F04D30A484F
:100BA00041F6B561FFF796FC084BD3F8041121F428
:100BB000FF3121F4807141EA0421C3F804112DE6CC
:100BC00041F6BC61B2E600BF7C1E000000400E4052
:100BD000A0091400B8003200B900340008B5074875
:100BE0000321FFF7CDFD06480321FFF7C9FDBDE84E
:100BF000084004480321FFF7C3BD00BF4041050082
:100C0000504107006041090037B5FFF7F3FB044688
:100C1000FFF7CAFC022817D1194B1A481A491C447D
:100C20009C42B4FBF1F188BF01F1FF310191FFF764
:100C3000A7FD01991548FFF7A3FD0199144803B0DA
:100C4000BDE83040FFF79CBD124B134D0D48E21834
:100C50009A42B2FBF5F588BF05F1FF352946FFF74B
:100C60008FFD0B482946FFF78BFD0C4B0C490748BD
:100C70001C449C42B4FBF1F188BF01F1FF31DEE777
:100C8000FF2C310140410500002D3101504107008A
:100C9000604109007FF0FA0280F0FA02FFA14A04E5
:100CA00000A24A0408B500F00F0001380B2879D8DB
:100CB000DFE800F006111B2F25397843515F6B6F79
:100CC000414BD3F8943003F00703023B052B76D851
:100CD0003E4AD05C30E03C4BD3F8803003F0070351
:100CE000013B032B6DD83A4AF3E7374BD3F88430F6
:100CF00003F00703013B032B63D8364AE9E7324B85
:100D0000D3F8883003F00703013B032B59D8324A4C
:100D1000DFE72D4BD3F88C3003F00703013B032BA7
:100D20004FD82E4AD5E7284B1B6F13F0030340D052
:100D3000012B14BF0120092008BD234BD3F85C31DF
:100D400003F03003202B36D0302B36D0102B14BFBD
:100D500001200720F0E71C4BD3F85C3103F440136B
:100D6000B3F5001F27D0B3F5401F26D0B3F5801F81
:100D7000EDE7154BD3F8600100F00300431E022B92
:100D80001DD800EB40000130D6E70F4BD3F86401CB
:100D9000F2E70D4BD3F8F03103F00703052B10D821
:100DA0000F4A96E70F4842F2BB01FFF793FB002082
:100DB000C2E70720C0E70420BEE70820BCE7052003
:100DC000BAE70120B8E700BF00400E406C1F0000EA
:100DD000721F0000761F0000721F0000721F0000CB
:100DE0007A1F00007C1E0000014B1880704700BF76
:100DF0001010002038B502280C4604D00D4842F6E9
:100E00002511FFF767FB0C4D6B6AC3F30113012B30
:100E10000DD064B107484FF42551FFF75BFB074B3A
:100E2000D5F8902033EA0202FAD1012038BD4FF400
:100E30008003F5E77C1E000000400E40FF3F473A6C
:100E40002DE9F047052804460F4691461FD83E4B32
:100E50003E4A13F800A03E4B13F80080F1B93D4B19
:100E600033F810301366012303FA08F8D2F89030F3
:100E700013EA080FFAD1B9F1000F61D00125334A06
:100E800005FA0AF5D2F890302B42FBD158E0BDE8C4
:100E9000F047314842F60A01FFF71CBB2F4B0228EE
:100EA00033F810604ED1536AC3F30113012B49D1BB
:100EB0002B4BDB6B5B0504D4274842F61901FFF787
:100EC00009FB224A536A03F00303032B05D1536A3B
:100ED00023F0300343F020035362224D1B4BA84400
:100EE0001E664FEA8808D8F80030002BFBD0B9F115
:100EF000000F25D05544AD002B68002BFCD0022CF0
:100F00001ED1EFB1114B5B6A03F00303032B03D037
:100F100000212046FFF76EFF0F4842F69601FFF7CB
:100F2000D9FA012200210220FFF78AFF0A4842F67F
:100F30000D11FFF7CFFA054B1E662B68002BFCD076
:100F4000BDE8F0870027C8E7801F000000400E4082
:100F5000861F0000981F00007C1E00008C1F0000F0
:100F600000300E408004F21038B511280C4613D022
:100F700000F00F0001380B2800F2EA81DFE810F0E2
:100F800029007100B2008D00AE00CC00E801DA004B
:100F90000101260156019A01042913D1FFF776FABF
:100FA0000546B0B10021284600F06EFB023C0C2C37
:100FB00049D8DFE804F0514E353B484848481048CE
:100FC000414B5400052904D1B04B1D68B04B9D42E4
:100FD000E8D80025EAE70520062401221146FFF79C
:100FE0002FFFFFF717FBFFF7F9FD0DB1FFF7CEFA63
:100FF000A84B5C67FFF738FA0446FFF7FBF9FFF7E9
:101000006BFAFFF7D1FA01462046FFF715FB1DB931
:101010000121284600F038FBBDE83840FFF7F4BD59
:101020009D48FFF759FA02200446D6E79A48FFF791
:1010300053FA01240320D0E742F27C11BDE8384086
:101040009648FFF747BA42F28111F7E703200524DB
:10105000C3E701200324C0E700200424BDE70724E0
:10106000BFE7062940D18D488D4D4FF40751FFF75A
:1010700031FA8A4842F2C811FFF72CFA874842F247
:10108000D011FFF727FAFFF7B5F9FFF725FA854BDF
:101090000122C3F80026032329E00629824DE8D067
:1010A000013C0B2C33D801A353F824F01511000098
:1010B000F3100000011100000F1100000F110000DB
:1010C000871000000F1100000F1100000F11000029
:1010D0000F1100000F110000ED1000000629734DE4
:1010E000DED1CBE7724DDBE76D4DD9E704232B60F2
:1010F00038BD012211460020FFF7A2FE0223F6E7C9
:10110000012211461046FFF79BFE0123EFE742F252
:10111000FB1193E70023EAE7072904D0092906D049
:1011200042F285218AE75B4B00221A67E0E7594BC0
:101130000122FAE74C1E072C1ED8DFE804F0201D20
:101140001D161D1D0F0403225249D1F85C3123F0F6
:10115000300343EA0213C1F85C31C9E701221146AA
:101160000420FFF76DFE0122EEE701221146022066
:10117000FFF766FE0222E7E742F2E3215EE7002284
:10118000E2E74C1E072C1CD8DFE804F01E1B1B14E2
:101190001B1B0D0403223F49D1F85C3123F440139B
:1011A00043EA0253D7E7012211460420FFF748FE25
:1011B0000122F0E7012211460220FFF741FE022240
:1011C000E9E742F2063139E70022E4E70C1F062C7A
:1011D00029D8DFE804F01304281A28282100012266
:1011E00011460320FFF72CFE00222A49D1F8603176
:1011F00023F003031343C1F8603179E7012211465C
:101200000220FFF71DFE0122EFE701221146042014
:10121000FFF716FE0222E8E7012211460520FFF73C
:101220000FFE0322E1E742F22D3107E70C1F062CE7
:1012300029D8DFE804F01304281A28282100012205
:1012400011460320FFF7FCFD00221249D1F864315A
:1012500023F003031343C1F8643149E70122114627
:101260000220FFF7EDFD0122EFE7012211460420E5
:10127000FFF7E6FD0222E8E7012211460520FFF70D
:10128000DFFD0322E1E742F25431D7E608100020E7
:10129000002D310100400E400148E8017C1E000095
:1012A00080400E400010C8438C400E4088400E40E5
:1012B00084400E408C1E092C47D8DFE804F0383FEC
:1012C000143146464646051B012211460520FFF70C
:1012D000B7FD00232049D1F8F02122F00702134383
:1012E000C1F8F03104E7012211460220FFF7A8FD02
:1012F0000123EFE7FFF7CAF8184B984204D91848C2
:1013000042F26F31FFF7E6F8134A536A43F00803DD
:101310005362012211460220FFF792FD0223D9E712
:10132000012211460320FFF78BFD0323D2E70122A0
:1013300011460020FFF784FD0423CBE7012211466C
:101340001046FFF77DFD0523C4E742F28E3175E6B6
:1013500042F2BA3172E600BF00400E4040787D0193
:101360007C1E000038B504461120FFF79BFC0428C2
:1013700004D11F4842F2A561FFF7ACF80122002119
:101380000220FFF75DFDE37A022B2AD8194AD25CCE
:10139000194D6B6A23F0030313436B62FFF776F872
:1013A000164B2288984294BF082000206B6A23F0D5
:1013B00008031843A388686243EAC223EB622B6BDD
:1013C000E2881B0D1B051343628843EAC2232B638B
:1013D000637A227A1B0143EA0233A27A13436B63D6
:1013E00038BD034842F2B961FFF774F80022CFE735
:1013F0007C1E0000A41F000000400E4040787D01CC
:1014000070B505461120FFF74DFC022804D10F48A6
:1014100042F26371FFF75EF80D4E0E4BB26B2C7803
:1014200013401C436B7844EAC324AB7844EA03645A
:10143000EB7844EA0324B36BA34205D000210122D8
:101440000846FFF7FDFCB46370BD00BF7C1E0000C2
:1014500000400E4080E4FFF8EFF3108072B6704752
:1014600000B962B670470000034BD86B80F04000B3
:10147000C0F38010704700BF00300E4038B542EA1C
:101480000323B3F5007F05460C463ED019D8B3F5CB
:10149000807F36D00AD883B3012B21D01F4840F675
:1014A000F211FFF717F8002213461FE040F2011275
:1014B0009342F3D11A4BD3F824321A0EC3F30743E5
:1014C00014E0B3F5407F24D040F20132934210D0B3
:1014D00040F201229342E1D1114BD3F8283202E0CD
:1014E0000F4BD3F82432C3F30722DBB22B60226008
:1014F00038BD0B4BD3F82832DFE7094BD3F81C3249
:10150000F1E7074BD3F81C32D7E7054BD3F820326D
:10151000E9E7034BD3F82032CFE700BFE01F00001C
:101520000081E00F08B5FFF79FFF20B1024AD2F813
:10153000C830002BFBD108BD0000C64310B51A4BC4
:101540000228D3F830320C4612D0032813D00128D9
:1015500014BFDBB2C3F307231B0323F47042ECB9BF
:101560005AB140F681111148FEF7B4FF002010BDBA
:10157000C3F30743F0E71B0EEEE70D49CA6E22F4F2
:1015800070421343CB660120F1E70949D1F8EC2002
:1015900022F470421343C1F8EC30F4E7002AF4D08F
:1015A00040F68D11DFE700BF0081E00FE01F000073
:1015B00000300E4070B50378124A002B43789469CE
:1015C00014BF04260026002B837814BF02250025B3
:1015D000002B037924F03F0443EA0403C47814BFCA
:1015E00008210021012C08BF43F0010333432B43A2
:1015F0000B4393611368417923F4403343EA014379
:10160000136070BD00300E40F8B504460F46FFF77A
:101610002BFF78B3FFF786FF174B5B68C3F30143DB
:101620009C4227D0154BD3F80061FEF7E3FE022C55
:1016300005460FD1124BC6F3042606FB00069E4258
:1016400004D910484FF4E361FEF744FF0221284615
:10165000FEF7F2FFC4F1020210239340064A136121
:101660000FB1FFF75FFF2CB921462846BDE8F840CF
:10167000FEF7E2BFF8BD00BF00300E4000400E4054
:10168000002D3101E01F000013B50246FFF7ECFE0C
:10169000C8B152B90D4B0191D3F80041FEF7AAFE33
:1016A000C4F30422019902FB0002094B1B7843B1E9
:1016B000084B9A4205D8022002B0BDE81040FFF75F
:1016C000A3BF0020F8E702B010BD00BF00400E40ED
:1016D0009E100020002D310110B5174B4AF6E8523C
:1016E000596B5A639A6FD407FCD41B6C13F0030335
:1016F0001EBF124A0124C2F8B44A834216D00E4BD0
:101700009A6FD207FCD41A6C22F0030202431A64C7
:101710009A6F12F00102FBD10038084C18BF01206B
:101720000129C4F8B40A08BF5A6303E010B9034B97
:10173000C3F8B40A10BD00BF00300E400000C6431D
:101740002DE9F04F89B0A0F5E1630024B3F5966F61
:10175000CDE90244CDE90444CDE9064406468A4673
:10176000934605D940F67B315548FEF7B3FEA3E01A
:10177000B0F5E16F534B8CBF0122002249D1D3F861
:101780001832C3F30721DBB2079104934FF41675A7
:101790004FF4966748E0BBF1000F0ED0D9F85C20FB
:1017A00022F4FE4222F00202B6F5E16F42EA012283
:1017B00018BF02200243C9F85C20BAF1000F26D0FE
:1017C00020460021FFF7BAFE044610B940F6D83192
:1017D000CAE701214046FFF7B1FE044610B94FF4B5
:1017E0003E61C1E7384A536EBD4238BF3D4623F4DF
:1017F000FF73E72D23F0010328BFE725B6F5E16F5E
:1018000018BF43F0010343EA4503536654E0012443
:1018100052E0D3F81832190EC3F30743079104932B
:101820004FF496654FF4E167DFF89C90D9F84C408F
:101830000192C4F30174234605A902A8FFF71EFE16
:10184000D9F8EC30019AC3F30128434606A903A84E
:10185000FFF714FE049BF01B079FF91A4143B1FBED
:10186000F5F299182CBF012300238F421ED3EBB948
:10187000069A039FD31B4343B3FBF5F3FF182CBF1A
:1018800001230023BA4211D383B9059B029AA3EB2B
:10189000020C00FB0CF0B0FBF5F555192CBF012034
:1018A0000020AB4202D300283FF475AF044840F655
:1018B000C931FEF70FFE0024204609B0BDE8F08FC5
:1018C000E01F00000081E00F00300E4008B5334AF1
:1018D000136FD16C11F0010F03F0060344D0002BFD
:1018E00042D0132857D9143813288CBF102308234B
:1018F0002A49013BCA6C180322F47F4240EA0323C1
:101900001343CB64264BCA6C1B88C2F303222833D3
:10191000013202EB820003EB5303B3FBF0F3C86C1C
:10192000013B072B28BF072320F0EE6040EA03634A
:1019300043F48013CB641B4BB3F90030002B12DB54
:1019400003F12800C0F34E030344500800EB4202A9
:10195000B3FBF2F20B6D072A28BF072223F07003B6
:1019600043EA02120A6508BDD16C01F00101194376
:1019700004D109280FD90A380928B6E7D26CD20752
:1019800002D50BB92728B0E7074840F61E41FEF7FD
:10199000A1FD0023ACE70423AAE700BF00300E40FE
:1019A0009A1000209C100020E01F000010B50C4B86
:1019B000D3F88039044633B9012804D9094840F6E0
:1019C0003C41FEF787FD084A136F23F007032343CA
:1019D0001367064BBDE810401888FFF777BF00BFBC
:1019E0000000C643E01F000000300E4098100020A9
:1019F00038B50389C82B044604D951484FF42261F5
:101A0000FEF768FDA28823899A4204D94C4840F623
:101A10002121FEF75FFDB4F90C30C82B04DD4848E6
:101A200040F62221FEF756FD6378012B55D1A3889D
:101A3000C82B04D940F626214148FEF74BFDE28829
:101A400042F210739A4204D93D4840F63321FEF722
:101A500041FDE3884A2B48D9B3F5FA7F47D340F6D6
:101A6000C312934294BF4FF000524FF04052354999
:101A7000B4F90C00CB6C23F0405323F00103002891
:101A8000A8BF43F001031343CB64D1F8EC30A28824
:101A900043F44073C1F8EC302B4B1A80CB6E43F00B
:101AA0008073CB66294BD3F8800900B10420FFF77F
:101AB0007DFF274B21891980264BB4F90C20A08883
:101AC0001A80FFF703FFA37BA3B1012B23D01C488F
:101AD00040F63211FEF7FEFC0FE0022BAFD1A388D7
:101AE0000A2BACD940F62B21A6E70022BFE74FF026
:101AF0008052BCE7134B184A9A6501226088114650
:101B0000FFF71EFE054648B90D4840F66A21FEF76C
:101B1000E1FC284638BD0B4B104AEDE7094AD36B70
:101B200043F48063D3636078FFF7D6FDA37AA3F113
:101B3000200253425341054AC2F89437E9E700BFF7
:101B4000E01F000000300E40981000200000C64347
:101B50009A1000209C10002077402057372110B7A2
:101B600038B5082804460D4604D84FF6FF73CB401D
:101B7000DB0704D4084840F22D41FEF7ABFC3023CC
:101B80000C2013FB040000F18C40012100F508201B
:101B900001FA05F5056038BD2E20000038B508288B
:101BA00004460D4604D84FF6FF73CB40DB0704D440
:101BB000084840F2FE31FEF78DFC30230C2013FB69
:101BC000040000F18840012100F5082001FA05F524
:101BD000056038BD2E20000070B505460E4614463F
:101BE000FFF73AFC296881EA040202EA06044C4045
:101BF0002C60BDE87040FFF733BC0000F8B5082842
:101C000005460C4616461F4604D84FF6FF73CB40D8
:101C1000DB0704D419484FF4B071FEF75BFC26B122
:101C200021462846CFB1FFF79BFF05EB4503072C64
:101C30004FEA03134FF00F0112D8A00006FA00F28A
:101C400081400F481844FFF7C7FFAEB92146284628
:101C500077B1BDE8F840FFF783BFFFF79FFFE4E7E8
:101C6000A4F10800800006FA00F281400548E9E787
:101C7000BDE8F840FFF792BFF8BD00BF7E2000002E
:101C800004800840088008407FB5094B6A4603F18C
:101C90001006154618685968144603C40833B34241
:101CA0002246F7D12846FFF7A3FE002004B070BDFE
:101CB000CE20000013B568460024022300948DF85E
:101CC00004408DF80530FFF775FC204602B010BDCA
:101CD0001FB5124A1068516801AB03C390681860C1
:101CE0000F4BD3F8B42012030FD4D3F8B830C3F39A
:101CF00008030C48ADF80630FEF7CEFB01A8FFF74D
:101D000031FB002005B05DF804FB074B1B884FF644
:101D1000FF72934208BF8423EBE700BFDE20000080
:101D20000081E00F80F0FA020001E00F07B5084BD8
:101D300018680190462301A88DF80430FFF760FB76
:101D40006420FFF751F8002003B05DF804FB00BFEA
:101D5000EA20000010B50C480C4C6FF00402A021E2
:101D600012F0800FD3B21BBF03F00F03043BA31884
:101D70001B1802F101020CBF83F800131976462AE2
:101D8000EED1002010BD00BF00ED00E000E100E05A
:101D900008B5FEF799FAFEF7D9FAFEF7D8FAFEF77A
:101DA000D8FABDE80840FEF7D5BA08B5FEF7D3FA71
:101DB000FEF7D2FAFEF7D1FABDE80840FEF7CEBA38
:101DC00008B5074B044613B10021AFF30080054B63
:101DD0001868836A03B19847204600F031F800BFC5
:101DE00000000000F020000070B50D4D0D4C641B8C
:101DF000A4100026A64209D10B4D0C4C00F022F88D
:101E0000641BA4100026A64205D170BD55F8043B02
:101E100098470136EEE755F8043B98470136F2E75C
:101E2000741000207410002074100020781000201E
:101E300002440346934200D1704703F8011BF9E7BF
:101E4000FEE700BFF8B500BFF8BC08BC9E4670476F
:101E5000F8B500BFF8BC08BC9E4670470024F400EB
:101E60000000000000000000000000000048E80141
:101E700000000000006CDC0280F0FA022F55736550
:101E800072732F616C6961776F6C6B656E2F53692C
:101E90006D706C696369747953747564696F2F53DD
:101EA000444B732F6765636B6F5F73646B2F706C4C
:101EB0006174666F726D2F656D6C69622F737263EA
:101EC0002F656D5F636D752E63002F55736572739B
:101ED0002F616C6961776F6C6B656E2F53696D70E4
:101EE0006C696369747953747564696F2F53444BDB
:101EF000732F6765636B6F5F73646B2F2F706C61FB
:101F000074666F726D2F636F6D6D6F6E2F696E6388
:101F10002F736C5F636F6D6D6F6E2E68002F55733E
:101F20006572732F616C6961776F6C6B656E2F538F
:101F3000696D706C696369747953747564696F2F26
:101F400053444B732F6765636B6F5F73646B2F2F05
:101F5000706C6174666F726D2F656D6C69622F694C
:101F60006E632F656D5F636D752E68000403020D4F
:101F70000A0E0302010C0302060C0A040B050203FD
:101F800009070301050B08060200040A00014000CE
:101F9000040001001000000400028000080002009C
:101FA000200000080001030080A8120100000000CA
:101FB000005125020001000080F9370300020000F3
:101FC00000A24A0400030000C0CF6A000200000023
:101FD000809FD50002010000002D310102020000A7
:101FE0002F55736572732F616C6961776F6C6B65C8
:101FF0006E2F53696D706C6963697479537475647D
:10200000696F2F53444B732F6765636B6F5F736406
:102010006B2F706C6174666F726D2F656D6C696289
:102020002F7372632F656D5F656D752E63002F557D
:10203000736572732F616C6961776F6C6B656E2F5E
:1020400053696D706C696369747953747564696FF1
:102050002F53444B732F6765636B6F5F73646B2FF4
:102060002F706C6174666F726D2F656D6C69622F75
:10207000696E632F656D5F6770696F2E68002F55FD
:10208000736572732F616C6961776F6C6B656E2F0E
:1020900053696D706C696369747953747564696FA1
:1020A0002F53444B732F6765636B6F5F73646B2FA4
:1020B000706C6174666F726D2F656D6C69622F73E1
:1020C00072632F656D5F6770696F2E630000000299
:1020D000080705000A00C8000000FFFF010000001B
:1020E0000000000600010D080E00000207000000BD
:0420F00014100020A8
:0820F400A4E0FF7F01000000E1
:0C20FC0008210000001000201F00000060
:10210800C0EA210180F0FA02C0EA21010080000043
:10211800FFFF0000000000000000000000000000B9
:1021280000000000000000000000000000000000A7
:102138000000000000000000000000000000000097
:102148000000000000000000000000000000000087
:102158000000000000000000000000000000000077
:102168000000000000000000000000000000000067
:0C217800000000007D0100005901000083
:040000030000038D69
:00000001FF
