S02A000073696D756C617465645F73656E736F72735F70726573737572655F616E645F68616C6C2E7333372C
S11300000010002005110000011100000111000082
S11300100111000001110000011100000111000094
S11300200111000001110000011100000111000084
S11300300111000001110000011100000111000074
S11300400111000001110000011100000111000064
S11300500111000001110000011100000111000054
S11300600111000001110000011100000111000044
S11300700111000001110000011100000111000034
S11300800111000001110000011100000111000024
S11300900111000001110000011100000111000014
S11300A00111000001110000011100000111000004
S11300B0011100000111000001110000A94000001D
S11300C001110000011100000111000001110000E4
S11300D0011100000111000001110000C91000000D
S11300E0D5100000011100000111000001110000F1
S11300F001110000011100000111000001110000B4
S113010001110000011100000111000001110000A3
S11301100111000001110000011100000111000093
S11301200111000001110000011100000111000083
S11301300111000001110000011100000111000073
S11301400111000001110000011100000111000063
S1130150000000000000000010B5054C237833B9FE
S1130160044B13B10448AFF300800123237010BD86
S11301709410002000000000545A000008B5034BFE
S11301801BB103490348AFF3008008BD0000000021
S113019098100020545A0000A3F5803A704700BF1D
S11301A0174B002B08BF134B9D46FFF7F5FF0021AB
S11301B08B460F461348144A121A04F06BF90E4B7F
S11301C0002B00D098470D4B002B00D098470020FF
S11301D0002104000D000D48002802D00C48AFF3A4
S11301E0008004F033F92000290000F0E5FC04F05D
S11301F019F900BF00000800000000000000000022
S11302000010002094100020BC1300200000000007
S113021000000000F7B5002840F08E80474D287894
S1130220830762D400F066FD00F056FE0A24FF2026
S1130230013C00F021FD14F0FF04F8D121462046D2
S113024000F00CFE012806466DD14FF47A7000F0E0
S113025065FE4FF4D571082000F000FE012846D158
S113026001AE37460424FF2000F006FD013C14F0E3
S1130270FF0407F8010BF6D19DF80630012B52D18B
S11302809DF80730AA2B4ED100F052FE30B94FF042
S11302908041A92000F0E2FD0028F5D100F048FEDD
S11302A0014600283FD13A2000F0D8FD00283AD179
S11302B00424FF2000F0E0FC013C14F0FF0406F8E5
S11302C0010BF6D19DF8043013F0400F14BF0C2439
S11302D004241B4B1C6000F0EDFC34B32B7823F09A
S11302E001032B7000F008FE287803B0F0BD21460E
S11302F0A92000F0B3FD022836BF02240124A92658
S113030000F016FE014620B9304600F0A7FD002893
S1130310F6D100F00DFE30B94FF40071102000F05A
S11303209DFD0028D5D00024D3E700F0E9FC2B780C
S113033043F001032B70D7E70120D6E7001000201B
S1130340B010002010B9024B187870470120704794
S11303500010002038B50D461C46114698BB93B3D7
S11303601B4B1B78DA0730D41A4B1B681B0758BF8A
S11303704902012C11D1112000F070FD38B94FF45D
S11303800071284600F0CAFCB0FA80F4640900F059
S113039091FC201E18BF012038BD122000F05EFD24
S11303A00028F4D14FF40071284600F0B7FC28B1BE
S11303B0013C14F0FF0405F50075F3D100210C2075
S11303C000F04CFDE3E70420E6E70320E4E700BF88
S11303D000100020B010002070B50E4615461C46D3
S11303E0002840D1002B3ED0224B1B78D8073CD4A8
S11303F059073CD4204B1B681A0758BF6D02012CC7
S113040011D12946182000F029FD50BBFE213046A9
S113041000F0D2FCB0FA80F4640900F04BFC201E1A
S113042018BF012070BD13F0060F03D0214697209A
S113043000F014FD2946192000F010FD0028ECD12D
S1130440FC21304600F0B8FC28B1013C14F0FF0454
S113045006F50076F4D1FD21002000F0ADFC002863
S1130460DBD10124D9E70420DCE70320DAE702200A
S1130470D8E700BF00100020B01000207FB50E4662
S11304801546002840F0E180724B187810F0010402
S113049040F0DD800E2900F2D680DFE801F0081874
S11304A04F53D4D4D4D415D49DA1B0B3C50000F017
S11304B00DFC28B9012400F0FDFB204604B070BDFA
S11304C000F0F8FB3446F6E701221A70F3E7002146
S11304D0092000F0C3FC04460028EBD11021684633
S11304E000F01CFC0028E5D09DF800309DF80810B1
S11304F09DF809009B09012B05D100EB0123013371
S11305009B022B60D7E79DF807309DF806209B00DF
S1130510920203EB911302F4406213449DF8052008
S11305209DF80A1002F00F02400002EBD11200F015
S1130530060002440133073A9340E2E74FF40073A4
S11305402B80B8E7444E316811F004011BD0002120
S11305508D2000F083FC0028ACD1FF2000F08CFB40
S11305601021684600F0DAFB0028A3D03024FF20D5
S113057000F082FB601E10F0FF04F8D19DF80A30F1
S11305801A091023D8E7092000F068FC0446002863
S113059090D11021684600F0C1FB00288AD032684F
S11305A09DF80A309DF80B1092070AD59DF80D208E
S11305B05B0003F07E0303EBD11392090133013A8C
S11305C0BAE7CA0002F01802C3F3840302EB511223
S11305D0013302FB033394E71F4B1B682B706AE75C
S11305E00021092000F03AFC00287FF463AF1021B9
S11305F0284600F093FBB0FA80F464095BE700211D
S11306000A20EFE700213A2000F028FC04460028E5
S11306107FF450AF6E1E0335FF2000F02DFB06F86B
S1130620010FAE42F8D146E700218D2000F016FC00
S113063000287FF43FAFFF2000F01EFB4021284636
S113064000F0BAFBD7E7042435E7042435E7032494
S113065033E700BF00100020B0100020006870478E
S11306600346006859687047C3690239023B8B42EC
S113067083BF4389006B01FB03000020704710B562
S1130680026852B111460B4631F8024B1F2C0CD9AB
S11306903A2CF8D1911C8B4202D04FF0FF3005E088
S11306A01288302AF9D102330360002010BD2DE9ED
S11306B0F041466B00F13808044601234078324685
S11306C04146FFF789FE0546A8B9A36A226AE0708D
S11306D0F31A934202D2A778012F02D82846BDE824
S11306E0F081236A60781E44324601234146FFF7B5
S11306F073FE013FF0E70125F0E7C3780BB1FFF784
S1130700D6BF1846704738B5436B8B4205460C4636
S113071010D0FFF7F2FF60B922466878012305F193
S11307203801FFF717FE00281CBF4FF0FF340120EB
S11307306C6338BD0020FCE710B50023C3704FF094
S1130740FF3343630446FFF7DEFF0346B0BBB4F850
S113075036124AF65522914232D194F83820E92AC9
S113076005D0A26B174902F0FF128A4210D104F19E
S11307706E00FFF773FF144A20F07F40904216D0BA
S113078004F18A00FFF76AFF02F14C5290420ED046
S11307900E4904F13802433412F8013B11F8010BFD
S11307A09442A3EB000304D0002BF5D00223184697
S11307B010BD002B14BF02230123F8E70423F6E73E
S11307C00323F4E7EB0090004641540080540000FA
S11307D02DE9F04385B000230B600F461546FFF763
S11307E04EFF061EC0F28881694B53F82640002C48
S11307F000F084813C60237805F0FE056BB16078DD
S1130800FFF7A0FDC70708D41DB110F0040500D000
S11308100A25284605B0BDE8F0830023F0B2237012
S11308206070FFF7F7FCC10700F16A810DB1420760
S1130830EED400212046FFF77FFF022840F09D8080
S11308406F4604F5FF7304F23E213A4613F8040C94
S113085010B11846FFF702FF10338B4242F8040B25
S1130860F4D1002657F8045B002D7ED0294620469B
S1130870FFF762FF012879D8012840F08D8004F148
S1130880430304F1780213F8017B002F7BD19342D8
S1130890F9D1B4F8A030B3F5807F74D194F8A430C2
S11308A0092B70D104F18000FFF7DAFE4FF0FF331B
S11308B015EB000841F10001434577EB010362D3D6
S11308C004F18C00FFF7CAFE94F8A6302062012BD5
S11308D0A37058D194F8A52003FA02F293B263816D
S11308E0002B50D004F19400FFF7B8FE294B984236
S11308F0064648D8831CE361656204F19000FFF763
S1130900ADFE00EB0509C4F8309004F1880092B202
S1130910FFF7A4FE06FB02F313EB09037F4198459E
S1130920054471EB0703A5622DD304F19800FFF78A
S113093095FE0146E0622046FFF796FE01462046FA
S1130940FFF7E1FED8B904F14C0304F5137213F870
S1130950141C812905D11846FFF780FE022800F0F7
S1130960D18020339342F2D10DE003200136042ECE
S11309707FF478AF042806D101E0042801D10125D1
S113098047E7012801D90D2543E7002574E700BF97
S1130990B4100020FDFFFF7FB4F84330B3F5007FAF
S11309A0F1D1B4F84E1021B904F15C00FFF756FE02
S11309B0014694F848202162531E012BA270E2D80C
S11309C094F845606681002EDDD0731E3342DAD17F
S11309D0B4F8497027813B07D5D1B4F84B0018B956
S11309E004F15800FFF73AFEB4F846C0BCF1000F1A
S11309F0C9D001FB02FE0CEB1719F1444845C2D3E0
S1130A00A0EB0902B242B2FBF6F3BCD34FF6F57287
S1130A10934260D840F6F576B3428CBF0226012695
S1130A2003F102080CEB050209EB0500032EC4F8E0
S1130A301C806562A26220634FD1B4F862303B43EC
S1130A40A1D104F16400FFF709FE4FEA8803E062D4
S1130A5003F2FF13B1EB532F95D34FF0FF33C4E9E7
S1130A600533032E4FF0800323712BD1B4F8683083
S1130A70012B27D1691C2046FFF745FE10BBB4F8B3
S1130A80362220714AF655239A421BD104F13800CC
S1130A90FFF7E4FD1E4B984214D104F50770FFF7ED
S1130AA0DDFD03F1FF5303F500532033984209D1D0
S1130AB004F50870FFF7D2FDA06104F50970FFF793
S1130AC0CDFD6061134A2670138801339BB21380F5
S1130AD0E38000259DE60326A2E7002F3FF453AFF1
S1130AE07244022E4FEA4803E2621EBF434408F0F8
S1130AF0010202EB5303ABE70B258AE60C2588E6DB
S1130B00032586E64FF0FF33C4E905330426D9E70D
S1130B1052526141B81000207FB5CDE9001003A8FE
S1130B2015460391FFF7ABFD041E1BDB0F4E56F871
S1130B3024300BB100221A70019A72B10023137091
S1130B40019846F8240030B1012D0DD1002201A9ED
S1130B506846FFF73DFE04B070BD08211046FFF75C
S1130B608DFCEDE70B20F6E70020F4E7B41000203D
S1130B7010B50E48012100F071FC0D48012100F070
S1130B806DFC01230A220021022002F037FA01231E
S1130B9019460A22022002F031FABDE8104001236E
S1130BA004220C21002002F029BA00BF001209001F
S1130BB000550A007047704708B503F099FAFFF72B
S1130BC0D7FFFFF7F7FF00F0BBF903F09EFAFFF73A
S1130BD0F2FFFAE72DE9F04188B0214D0FCD01ACC9
S1130BE00FC495E8070084E807001E481E4C012145
S1130BF000F034FC1D48012100F030FC1C4B0C2794
S1130C00012600251F6001A91A4B039320464FF0CB
S1130C100B088DF8126002F039FCA567C4F87480E3
S1130C202368042243F00043236010462B460A2124
S1130C3002F0E4F9334641460222042002F0DEF9D0
S1130C400422334610460D2102F0D8F904222B4623
S1130C503946104602F0D2F908B0BDE8F08100BF71
S1130C608C540000007204000000014000550A008A
S1130C70C0100020A0860100044A136801460BB18D
S1130C80013B1360024802F06FBC00BFBC1000209F
S1130C900000014010B5064B1C684FF4FA735C4326
S1130CA0FF20FFF7E9FFFF2801D0013CF8D110BD78
S1130CB0C0100020044AD2F8CC3043F40053C2F8E8
S1130CC0CC30FF20FFF7D8BF0080084008B5084AA1
S1130CD0D2F8CC3023F40053C2F8CC30FFF7DAFF5B
S1130CE0FF2803D0FFF7E6FF002008BD0120FCE742
S1130CF0008008400148012100F0B0BB00720400EC
S1130D0008B5FFF7E3FFFFF7D5FFBDE80840024849
S1130D10002100F0A3BB00BF00720400F8B5234B10
S1130D201C68064664200D464443FF20FFF7A4FFD9
S1130D30FF2803D1013CF8D1002036E0FE28FBD186
S1130D401B4B1C485C6819685A6822F00F0242F079
S1130D500D025A601A6842F080521A604FF44062E1
S1130D60DA600268AF1C97429ABF023A521B002213
S1130D7002604FF6FF770E4ADF63B01CD763136936
S1130D801E06FCD5536A00F8023C023DC3F3072358
S1130D9000F8013C00F10200F0D1054B1A6912067B
S1130DA0FCD55A6A5C6001201960F8BDC0100020AF
S1130DB000000140BC10002070B504460D46FFF74A
S1130DC069FFFF2841D12846FFF756FFFD2D3ED08D
S1130DD0204B586819685A6822F00F0242F00D023D
S1130DE05A601A6842F080521A604FF44062DA6026
S1130DF0194A136840F20125AB428CBFA3F20223C7
S1130E0000231360134B04F50075228802341E6915
S1130E107606FCD5A542DA63F7D11A695406FCD5E7
S1130E204FF6FF72DA630B4B1A699206FCD54FF446
S1130E304062DA6058601960FF20FFF71DFF00F080
S1130E401F00431F5842584170BD0020FCE7012099
S1130E50FAE700BF00000140BC10002038B50206CC
S1130E6004460D4607D500213720FFF7F7FF012878
S1130E702CD804F07F04FFF71DFFFFF727FF40B3D2
S1130E8044F04000FFF7F8FE280EFFF7F5FEC5F327
S1130E900740FFF7F1FEC5F30720FFF7EDFEE8B2C8
S1130EA0FFF7EAFE9CB1082C14BF01208720FFF74E
S1130EB0E3FE0C2C02D1FF20FFF7DEFE0A24FF2004
S1130EC0FFF7DAFE030601D5013CF8D138BD9520C1
S1130ED0EDE7FF20FAE7000008B5044A04480021C2
S1130EE002F0B6F9034B0C221A6008BDA08601007B
S1130EF000000140C010002008B5054A0548002143
S1130F0002F0A6F9044B40F253721A6008BD00BF08
S1130F10C0E1E40000000140C0100020024B1B6847
S1130F205843024B18607047C0100020BC100020CA
S1130F30024B1868B0FA80F040097047BC100020DA
S1130F4008B5FFF747FE064906480122FFF7E4FD0E
S1130F5020B90548BDE8084003F084BB0348F9E71D
S1130F60D7540000C4100020A8540000BE54000050
S1130F707047000008B50421112001F0EDF90B4879
S1130F80012100F06BFA0A48022101F0E5F9094851
S1130F90022101F0E1F90848022101F0DDF90748D6
S1130FA0022101F0D9F9002008BD00BF30053E0040
S1130FB002001E000300200004002200050024009B
S1130FC008B54FF0804301225A6403F564231B499A
S1130FD0D3F8B02042F00102C3F8B020D3F8E020E7
S1130FE042F00802C3F8E0204A6B42F480524A639C
S1130FF0D3F8E02022F00802C3F8E020D3F8B020B0
S113100022F00102C3F8B0200D4AD2F8A43143F40F
S1131010F843C2F8A43102F01DFB00F06BF802F0B3
S1131020B3FA02F0D5FA02F001FBFFF7A3FF02F0D6
S1131030C1FABDE8084000F051B800BF00400540C7
S113104000300E40704708B500F046F802F076FE16
S1131050BDE8084000F036B87047704770477047E5
S11310607047704770B592B0124C0FCC0BAD0FC5E2
S113107094E8070004F10C0685E807000FCE06ADDE
S11310800FC5203433682B6094E80F0002AD85E867
S11310900F00094B0093094806AB0BAA294602F03E
S11310A0F9FC044618B10648872100F0DBF8204615
S11310B012B070BD08550000FC1200205C13002023
S11310C0D8540000FFF7CEBF014B186802F096BD5C
S11310D05C130020FFF7F8BF0F20704708B50448E1
S11310E0012100F0BBF9BDE80840FFF741BF00BF94
S11310F000550A000148012100F0B0B900550A006A
S1131100FEE7000008B500F093F8124B12498B4239
S113111012D3124B124900208B4218D3FFF740F828
S1131120186850F82240586840F822400132986804
S11311308242F5D30C33EAE70022F8E71C6844F84E
S1131140220001325C68A242F8D30833E4E70022AB
S1131150F8E700BF5C5A0000685A0000685A0000B3
S1131160685A00000048704700A24A04174AD2F89F
S1131170943003F00703023B042B1FD8DFE803F08D
S11311800620031A0800124B1B680AE0114BFBE708
S11311909368C3F30443073B072B14D80E4A52F851
S11311A023300A4AD2F80001C0F304200130B3FB13
S11311B0F0F07047094B1B685B08F2E7074BE3E765
S11311C04FF40043EDE70023EBE700BF00400E407F
S11311D01010002008100020485500000C100020BA
S11311E008B5FFF7C3FF054BD3F80831C3F3082351
S11311F00133B0FBF3F0024B186008BD00400E4011
S113120004100020014B1868704700BF081000202C
S1131210054B1860054BD3F8943003F00703022BF9
S113122001D1FFF7DDBF70470810002000400E40D9
S1131230044B054A9A60D3F8882042F47002C3F83C
S11312408820704700ED00E0000000004FF40040EB
S113125070474FF47A707047014B1868704700BFAD
S113126010100020FEE7000005490A68131805481D
S113127083428CBF4FF0FF320B601046704700BFB3
S113128014100020000008200C4B984210D90C4B7D
S1131290984210D9022201230A490B640A49D1F861
S11312A0003123F0407343EA0263C1F80031704710
S11312B000221346F0E70122FBE700BF0048E801E3
S11312C00090D0030000C84300400E4038B54FF0F2
S11312D0804300225B68104BC9B21C461D798D42C5
S11312E002D11D68854213D20132072A03F1080393
S11312F0F4D10A4841F2CE51FFF7B4FF03224FF074
S113130080414B6823F0407343EA02634B6038BD6D
S113131004EBC2025279F2E79456000068550000CB
S113132010B51F28044604D903484FF4B371FFF7DE
S113133099FF0120A04010BDB6550000044BDB6BA3
S11313405B0604D4034AD2F8C830002BFBD17047A3
S113135000300E400000C64308B5FFF7EFFF024B14
S11313605868C0F3014008BD00300E40044BD3F868
S11313704421D20703D4D3F840211042FBD1704753
S113138000400E4038B5B0F5004F054604D30C4874
S113139040F61C61FFF766FF6C1C14BFB4FA84F4BA
S11313A02024C4F11F042046FFF7BAFF0138A842E5
S11313B004D0034840F62361FFF754FF204638BDAC
S11313C00956000070B54FF0804441F67136256C23
S11313D02664FFF7C7FE0021FFF778FFADB2B542E0
S11313E01CBF0023236470BD70B54FF0804341F6E9
S11313F071321E6C1A6405460C46FFF767FF134AE8
S1131400134B022C08BF13469D42124AB6B209D9A7
S11314104FF08C43C3F800210F4A954207D84FF090
S1131420884306E04FF08843C3F80021F7E7002C17
S1131430F5D14FF480521A6041F671339E421EBFBB
S11314404FF0804300221A6470BD00BF0024F400F2
S113145080D543020202020080F0FA0238B5C0F3DC
S11314600322013A03460E2A3AD8DFE802F0404349
S11314703939081B1E212536292E391833001F4CF3
S11314800020C3F3043508B1FFF770FF04F14244B0
S113149004F5801405EBC404A400216038BD184C85
S11314A00020EEE7174C0120EBE7174C1020E8E78B
S11314B0164C4FF48070E4E7154C4FF48030E0E7AD
S11314C0144C81F001010020DBE7134C81F0010191
S11314D00020D6E7114C0020D3E7114C0020D0E7C0
S11314E0BDE838400F4841F66A31FFF7BBBE0E4CE9
S11314F00020C6E70D4C0020C3E700BFB0400E40FB
S1131500C4400E40E0400E40E8400E40EC400E4027
S1131510F0400E4060410E4064410E40F0410E40E8
S113152050410E406855000000400E40C0400E403F
S113153008B5C0F30313013B0B2B00F2AB80DFE8CB
S113154003F0060C101A2024282C668692A5534B0F
S1131550D3F80001C0F3042008BD504BD3F81401A4
S1131560F8E74E4BD3F80001C0F301600130FFF7F8
S1131570D7FE0138F0E7494BD3F80C01C0F308203B
S1131580EAE7464BD3F81801F8E7444BD3F81C01BB
S1131590F4E7424BD3F80801F0E7414B98422AD0D4
S11315A00ED8A3F5BA2398422BD003F57033984292
S11315B015D041F60E513B48FFF754FE0020CBE70F
S11315C0394B984205D0394B98420ED0384B98424B
S11315D0EFD1324BD3F82001C0F30230C7E72F4BD1
S11315E0D3F8200100F00F00C1E72C4BD3F8200101
S11315F0C0F30120BBE7294BD3F82001C0F303104B
S1131600B5E7264BD3F82001C0F30340AFE7294BDD
S113161098420CD003F5A11398420ED0264B984261
S113162012D11E4BD3F8280100F003009FE71B4B97
S1131630D3F82801C0F3011099E7184BD3F8280117
S1131640C0F30130043092E741F63251B3E71B4B4B
S1131650984205D1114BD3F8300100F003007BE729
S113166041F64151A7E7164B984205D0154B9842D5
S113167006D041F659519EE7084BD3F85C01ECE7DC
S1131680064BD3F85C01C0F3014065E7034BD3F884
S1131690040173E741F666518DE700BF00400E4038
S11316A0801618006855000000362C0080262E0095
S11316B080002A0090171C0090071A00A00914004B
S11316C0B8003200B900340008B5FFF731FF01302B
S11316D008BD000010B5C0F30313013B0C460B2BEF
S11316E000F21882DFE813F00C00340045006000BB
S11316F0740088009C00BC006101CE01DA01020282
S11317001F2904D9C44841F68F51FFF7ABFDFFF7F9
S113171059FEC248FFF7B8FD00F00AFAC04BD3F8EF
S1131720001121F4F85141EA0424C3F80041FFF701
S113173057FD0446FFF710FE01462046FFF754FE0E
S1131740FFF714FDFFF7A0FDBDE8104000F006BA56
S11317501F2904D9B04841F6A551FFF783FDB04BCA
S1131760D3F8141121F4F85141EA0424C3F81441C4
S113177010BD4B1EB3F5004F0DD2B4FA84F1A84B43
S1131780D3F80041C1F11F0124F0407444EA01641C
S1131790C3F80041ECE7A34840F62C51FFF762FD83
S11317A0002CEAD12021EAE7B1F5007F04D39A485E
S11317B041F6B251FFF756FD994BD3F80C1121F4C1
S11317C0FF3121F4807141EA0421C3F80C11CFE701
S11317D0B1F5007F04D3904841F6B951FFF742FDBB
S11317E08F4BD3F8181121F4FF3121F4807141EAB1
S11317F00421C3F81811BBE7B1F5007F04D3864870
S113180041F6C151FFF72EFD854BD3F81C1121F48D
S1131810FF3121F4807141EA0421C3F81C11A7E7C8
S1131820B1F5007F04D37C4841F6C851FFF71AFD97
S1131830FFF7C8FD7A4BD3F8081121F4FF3121F4E6
S1131840807141EA0421C3F80811FFF7C9FC04467A
S1131850FFF782FD01462046BDE81040FFF7C4BDF6
S1131860714B984274D010D8704B984246D0704B4C
S1131870984257D0A3F57033984226D041F644617C
S1131880BDE810406448FFF7EDBC6A4B984205D0B0
S1131890694B984273D0694B9842EFD1B4F5004F2D
S11318A004D95D4841F63661FFF7DCFC2046FFF7BA
S11318B069FD01460420FFF759FD594AD2F8203149
S11318C023F4E04343EA013315E0B1F5004F04D9B2
S11318D0514841F6DA51FFF7C5FC2046FFF752FDA7
S11318E001460420FFF742FD4D4AD2F8203123F48B
S11318F0702343EA0143C2F8203139E7022904D9AD
S113190041F6EB514448FFF7ADFC4FF48020FFF75C
S11319102DFD434BD3F8301121F003010C43C3F8E0
S1131920304125E7B1F5004F04D93B4841F6086141
S1131930FFF798FC2046FFF725FD01460420FFF73A
S113194015FD374AD2F8203123F00F030B43D2E7B9
S1131950B1F5004F04D9304841F61761FFF782FC16
S11319602046FFF70FFD01460420FFF7FFFC2C4A39
S1131970D2F8203123F0F00343EA0113BBE708292E
S113198004D9254841F62661FFF76CFC2046FFF791
S1131990F9FC01460420FFF7E9FC214AD2F8203182
S11319A023F4407343EA0123A5E7254B98421DD055
S11319B003F5A113984247D0224B98425FD10829DE
S11319C004D9154841F64D61FFF74CFC2046FFF75A
S11319D0D9FC01464020FFF7C9FC114AD2F828314E
S11319E023F003030B43C2F82831C1E6082904D9C4
S11319F0094841F65C61FFF735FC2046FFF7C2FC5D
S1131A0001464020FFF7B2FC054AD2F8283123F002
S1131A10300343EA0113E6E7685500000148E80192
S1131A2000400E400956000080161800A00914005A
S1131A308006160000362C0080262E0080002A0026
S1131A4090171C0090071A00A1F10F03702B04D902
S1131A50324841F66B61FFF705FC2046FFF792FC24
S1131A6001464020FFF782FC2D4AD2F828010439B0
S1131A7020F4405040EA0130C2F8280178E641F6EB
S1131A807A61FDE6274B984205D102297FF63DAFE6
S1131A9041F6846136E741F69461F1E6224B9842BF
S1131AA005D0224B984212D041F6AD61E8E60329F5
S1131AB004D91A4841F69F61FFF7D4FB184BD3F8B9
S1131AC05C1121F003010C43C3F85C4150E6032987
S1131AD004D9124841F6A761FFF7C4FB104BD3F8B1
S1131AE05C1121F4403141EA0444EDE7B1F5007F93
S1131AF004D30A4841F6B561FFF7B4FB084BD3F8A9
S1131B00041121F4FF3121F4807141EA0421C3F866
S1131B1004112DE641F6BC61B2E600BF6855000031
S1131B2000400E40A0091400B8003200B90034008F
S1131B3008B507480321FFF7CDFD06480321FFF749
S1131B40C9FDBDE8084004480321FFF7C3BD00BF39
S1131B5040410500504107006041090037B5FFF7D7
S1131B6005FB0446FFF7F8FB022817D1194B1A4866
S1131B701A491C449C42B4FBF1F188BF01F1FF31C6
S1131B800191FFF7A7FD01991548FFF7A3FD0199FE
S1131B90144803B0BDE83040FFF79CBD124B134D11
S1131BA00D48E2189A42B2FBF5F588BF05F1FF35FE
S1131BB02946FFF78FFD0B482946FFF78BFD0C4B99
S1131BC00C4907481C449C42B4FBF1F188BF01F165
S1131BD0FF31DEE7FF2C310140410500002D3101CA
S1131BE050410700604109007FF0FA0280F0FA02D8
S1131BF0FFA14A0400A24A0408B500F00F0001380E
S1131C000B2879D8DFE800F006111B2F253978431B
S1131C10515F6B6F414BD3F8943003F00703023BE1
S1131C20052B76D83E4AD05C30E03C4BD3F880306C
S1131C3003F00703013B032B6DD83A4AF3E7374B14
S1131C40D3F8843003F00703013B032B63D8364AEF
S1131C50E9E7324BD3F8883003F00703013B032B49
S1131C6059D8324ADFE72D4BD3F88C3003F0070301
S1131C70013B032B4FD82E4AD5E7284B1B6F13F09B
S1131C80030340D0012B14BF0120092008BD234BBE
S1131C90D3F85C3103F03003202B36D0302B36D010
S1131CA0102B14BF01200720F0E71C4BD3F85C3144
S1131CB003F44013B3F5001F27D0B3F5401F26D01B
S1131CC0B3F5801FEDE7154BD3F8600100F0030076
S1131CD0431E022B1DD800EB40000130D6E70F4B0A
S1131CE0D3F86401F2E70D4BD3F8F03103F00703A6
S1131CF0052B10D80F4A96E70F4842F2BB01FFF7B5
S1131D00B1FA0020C2E70720C0E70420BEE708209C
S1131D10BCE70520BAE70120B8E700BF00400E4049
S1131D20585600005E560000625600005E560000E1
S1131D305E560000665600006855000038B5314B09
S1131D40984205460BD01ED82F4B984207D02F4BF4
S1131D509D4204D02E4841F2CD61FFF783FA284614
S1131D60FFF74AFF274B9D42044625D00DD8264B4A
S1131D709D4211D0254B9D421AD0254841F2FC6169
S1131D80FFF770FA0DE0234BE2E7224B9D42F4D1BA
S1131D90214BD3F8884002E01F4BD3F8804004F075
S1131DA00704042C27D8DFE804F0240B0F171300D2
S1131DB0194BD3F88440F2E7174BD3F88C40EEE785
S1131DC0BDE83840FFF742BABDE83840FFF744BAEF
S1131DD0BDE83840FFF73DBAFFF7C8F90E4B04469B
S1131DE0D3F80001C0F301600130FFF799FAB4FBA6
S1131DF0F0F4204638BD064841F24E71FFF732FA3E
S1131E000024F6E70400220002001E000300200064
S1131E10685500000500240000400E4008B5012864
S1131E2014BF12481248FFF7E7FE0138072816D8F6
S1131E30DFE800F01A1515071515040B0D4B18688B
S1131E4008BDBDE80840FFF7DDB9FFF78FF90A4B7D
S1131E50D3F80031C3F3042303FB0000F0E7074881
S1131E6041F2C741FFF7FEF90020E9E7B80032006C
S1131E70B90034001810002000400E4068550000DE
S1131E8038B500F47813B3F5E01F054600F0FC8084
S1131E904CD8B3F5602F00F0108123D8B3F5C02FD0
S1131EA000F0A1800DD8B3F5003F00F0A880B3F591
S1131EB0802F00F08D80002B00F0078141F69A41BD
S1131EC009E1B3F5202F00F09480B3F5402F00F022
S1131ED09C80B3F5002FF1D1FFF748F9B14BD3F84B
S1131EE01C317AE0B3F5B01F00F0AA800DD8B3F529
S1131EF0901F00F09280B3F5A01F00F09880B3F516
S1131F00801FDBD1A84B18686CE0B3F5C01F00F04C
S1131F10A580B3F5D01FD1D1A448FFF70FFFA14B83
S1131F200446D3F8280100F0030092E0B3F5401F03
S1131F3000F0B48024D8B3F5201F00F0BA800FD885
S1131F40B3F5001F00F09E80B3F5101F00F0B380BE
S1131F50B3F5F01FB2D19648BDE83840FFF7EEBEA6
S1131F60B3F5281F00F08480B3F5381FA6D190483C
S1131F70FFF7E4FE8B4BD3F82031C3F3012354E085
S1131F80B3F5601F00F0CF8013D8B3F5501F00F0F5
S1131F90A780B3F5581F00F0AC80B3F5481F8DD16E
S1131FA00020FFF73BFF7F4BD3F85C3103F00303C2
S1131FB015E0B3F5681F00F0D080B3F5781F7FF407
S1131FC07DAFFFF7D3F804462846FFF77DFB42E0D8
S1131FD0FFF7CCF8734BD3F80C31C3F30823013368
S1131FE0B0FBF3F038BDFFF7C1F86E4BD3F81831EE
S1131FF0F3E7FFF7BBF86B4BD3F80431EDE7FFF7DA
S1132000B5F8684BD3F80831E7E7FFF7AFF8654B4D
S1132010D3F81431C3F30423E1E76548FFF78EFED8
S1132020604BD3F82031C3F30343D840DAE7614867
S1132030FFF784FE5B4BD3F8303103F00303F4E77E
S11320405B48FFF77BFE574B0446D3F8200100F0B2
S11320500F00FFF765F9B4FBF0F0C3E75448FFF74E
S11320606DFE504B0446D3F82001C0F30310F0E793
S11320704F48FFF763FE4B4B0446D3F82001C0F3EF
S11320800230E6E7494867E74848FFF757FE454B03
S11320900446D3F82801C0F30110DAE74348FFF7F8
S11320A04DFE404B0446D3F82801C0F30130043000
S11320B0CFE7414850E73F484EE74048FFF79CFDD3
S11320C007283FF41FAF092803D1BDE83840FFF7C4
S11320D04DB841F290413A48FFF7C4F8002081E737
S11320E00120FFF79BFE2F4BD3F85C31C3F3014370
S11320F075E73448FFF780FD0438062810D801A39B
S113210053F820F0792100008921000021210000EA
S1132110051F00002121000021210000752100007D
S113212041F2F141D7E72848FFF766FD0438062855
S113213010D801A353F820F0792100008921000070
S113214055210000051F0000552100005521000005
S11321507521000041F22351BDE71C48FFF74CFDF7
S1132160023809281AD8DFE800F01115070F1919E9
S11321701919050B164BC6E6BDE83840FFF742B8FF
S1132180FFF740F840002DE7124BBCE6BDE83840AD
S1132190FFF762B8BDE83840FFF758B841F27A510A
S11321A099E700BF00400E401810002003002000F3
S11321B002001E00050024000400220006000E0098
S11321C0685500000A7B36000B7C38000C7F3A000F
S11321D0201000200C100020014B1880704700BF15
S11321E01C10002038B502280C4604D00D4842F6D5
S11321F02511FFF737F80C4D6B6AC3F30113012B5C
S11322000DD064B107484FF42551FFF72BF8074B65
S1132210D5F8902033EA0202FAD1012038BD4FF4F8
S11322208003F5E76855000000400E40FF3F473A41
S11322302DE9F047052804460F4691461FD83E4B2A
S11322403E4A13F800A03E4B13F80080F1B93D4B11
S113225033F810301366012303FA08F8D2F89030EB
S113226013EA080FFAD1B9F1000F61D00125334AFE
S113227005FA0AF5D2F890302B42FBD158E0BDE8BC
S1132280F047314842F60A01FEF7ECBF2F4B022813
S113229033F810604ED1536AC3F30113012B49D1B3
S11322A02B4BDB6B5B0504D4274842F61901FEF780
S11322B0D9FF224A536A03F00303032B05D1536A5F
S11322C023F0300343F020035362224D1B4BA844F8
S11322D01E664FEA8808D8F80030002BFBD0B9F10D
S11322E0000F25D05544AD002B68002BFCD0022CE8
S11322F01ED1EFB1114B5B6A03F00303032B03D030
S113230000212046FFF76EFF0F4842F69601FEF7C4
S1132310A9FF012200210220FFF78AFF0A4842F6A2
S11323200D11FEF79FFF054B1E662B68002BFCD09A
S1132330BDE8F0870027C8E76C56000000400E4057
S1132340725600008456000068550000785600005C
S113235000300E408004F21038B511280C4613D01A
S113236000F00F0001380B2800F2EA81DFE810F0DA
S113237029007100B2008D00AE00CC00E801DA0043
S11323800101260156019A01042913D1FEF73AFFEF
S11323900546B0B10021284600F076FB023C0C2C27
S11323A049D8DFE804F0514E353B484848481048C6
S11323B0414B5400052904D1B04B1D68B04B9D42DC
S11323C0E8D80025EAE70520062401221146FFF794
S11323D02FFFFEF7F7FFFFF7ABFB0DB1FEF7AEFFE4
S11323E0A84B5C67FEF7FCFE0446FEF7BFFEFEF753
S11323F04BFFFEF7B1FF01462046FEF7F5FF1DB97E
S11324000121284600F040FBBDE83840FFF7A6BB99
S11324109D48FEF739FF02200446D6E79A48FEF7A6
S113242033FF01240320D0E742F27C11BDE8384099
S11324309648FEF717BF42F28111F7E703200524FF
S1132440C3E701200324C0E700200424BDE70724D8
S1132450BFE7062940D18D488D4D4FF40751FEF753
S113246001FF8A4842F2C811FEF7FCFE874842F297
S1132470D011FEF7F7FEFEF779FEFEF705FF854B58
S11324800122C3F80026032329E00629824DE8D05F
S1132490013C0B2C33D801A353F824F0052500008C
S11324A0E3240000F1240000FF240000FF240000C6
S11324B077240000FF240000FF240000FF24000014
S11324C0FF240000FF240000DD2400000629734DD2
S11324D0DED1CBE7724DDBE76D4DD9E704232B60EA
S11324E038BD012211460020FFF7A2FE0223F6E7C1
S11324F0012211461046FFF79BFE0123EFE742F24B
S1132500FB1193E70023EAE7072904D0092906D041
S113251042F285218AE75B4B00221A67E0E7594BB8
S11325200122FAE74C1E072C1ED8DFE804F0201D18
S11325301D161D1D0F0403225249D1F85C3123F0EE
S1132540300343EA0213C1F85C31C9E701221146A2
S11325500420FFF76DFE0122EEE70122114602205E
S1132560FFF766FE0222E7E742F2E3215EE700227C
S1132570E2E74C1E072C1CD8DFE804F01E1B1B14DA
S11325801B1B0D0403223F49D1F85C3123F4401393
S113259043EA0253D7E7012211460420FFF748FE1D
S11325A00122F0E7012211460220FFF741FE022238
S11325B0E9E742F2063139E70022E4E70C1F062C72
S11325C029D8DFE804F01304281A2828210001225E
S11325D011460320FFF72CFE00222A49D1F860316E
S11325E023F003031343C1F8603179E70122114654
S11325F00220FFF71DFE0122EFE70122114604200D
S1132600FFF716FE0222E8E7012211460520FFF734
S11326100FFE0322E1E742F22D3107E70C1F062CDF
S113262029D8DFE804F01304281A282821000122FD
S113263011460320FFF7FCFD00221249D1F8643152
S113264023F003031343C1F8643149E7012211461F
S11326500220FFF7EDFD0122EFE7012211460420DD
S1132660FFF7E6FD0222E8E7012211460520FFF705
S1132670DFFD0322E1E742F25431D7E60C100020DB
S1132680002D310100400E400148E801685500006A
S113269080400E400010C8438C400E4088400E40DD
S11326A084400E408C1E092C47D8DFE804F0383FE4
S11326B0143146464646051B012211460520FFF704
S11326C0B7FD00232049D1F8F02122F0070213437B
S11326D0C1F8F03104E7012211460220FFF7A8FDFA
S11326E00123EFE7FEF78EFD184B984204D91848F2
S11326F042F26F31FEF7B6FD134A536A43F0080302
S11327005362012211460220FFF792FD0223D9E70A
S1132710012211460320FFF78BFD0323D2E7012298
S113272011460020FFF784FD0423CBE70122114664
S11327301046FFF77DFD0523C4E742F28E3175E6AE
S113274042F2BA3172E600BF00400E4040787D018B
S11327506855000038B504461120FFF74DFA0428E7
S113276004D11F4842F2A561FEF77CFD012200213D
S11327700220FFF75DFDE37A022B2AD8194AD25CC6
S1132780194D6B6A23F0030313436B62FEF73AFDA2
S1132790164B2288984294BF082000206B6A23F0CD
S11327A008031843A388686243EAC223EB622B6BD5
S11327B0E2881B0D1B051343628843EAC2232B6383
S11327C0637A227A1B0143EA0233A27A13436B63CE
S11327D038BD034842F2B961FEF744FD0022CFE759
S11327E0685500009056000000400E4040787D017E
S11327F070B505461120FFF7FFF9022804D10F48F0
S113280042F26371FEF72EFD0D4E0E4BB26B2C7827
S113281013401C436B7844EAC324AB7844EA036452
S1132820EB7844EA0324B36BA34205D000210122D0
S11328300846FFF7FDFCB46370BD00BF6855000097
S113284000400E4080E4FFF8EFF3108072B670474A
S113285000B962B67047EFF31180602383F31188E7
S1132860704780F311887047034BD86B80F04000A9
S1132870C0F38010704700BF00300E4038B542EA04
S11328800323B3F5007F05460C463ED019D8B3F5B3
S1132890807F36D00AD883B3012B21D01F4840F65D
S11328A0F211FEF7DFFC002213461FE040F2011292
S11328B09342F3D11A4BD3F824321A0EC3F30743CD
S11328C014E0B3F5407F24D040F20132934210D09B
S11328D040F201229342E1D1114BD3F8283202E0B5
S11328E00F4BD3F82432C3F30722DBB22B602260F0
S11328F038BD0B4BD3F82832DFE7094BD3F81C3231
S1132900F1E7074BD3F81C32D7E7054BD3F8203255
S1132910E9E7034BD3F82032CFE700BFCC560000E1
S11329200081E00F08B5FFF79FFF20B1024AD2F8FB
S1132930C830002BFBD108BD0000C64310B51A4BAC
S11329400228D3F830320C4612D0032813D00128C1
S113295014BFDBB2C3F307231B0323F47042ECB9A7
S11329605AB140F681111148FEF77CFC002010BDDD
S1132970C3F30743F0E71B0EEEE70D49CA6E22F4DA
S113298070421343CB660120F1E70949D1F8EC20EA
S113299022F470421343C1F8EC30F4E7002AF4D077
S11329A040F68D11DFE700BF0081E00FCC56000038
S11329B000300E4070B50378124A002B43789469B6
S11329C014BF04260026002B837814BF022500259B
S11329D0002B037924F03F0443EA0403C47814BFB2
S11329E008210021012C08BF43F0010333432B438A
S11329F00B4393611368417923F4403343EA014361
S1132A00136070BD00300E40F8B504460F46FFF762
S1132A102BFF78B3FFF786FF174B5B68C3F30143C3
S1132A209C4227D0154BD3F80061FEF79FFB022C84
S1132A3005460FD1124BC6F3042606FB00069E4240
S1132A4004D910484FF4E361FEF70CFC0221284638
S1132A50FEF7CAFCC4F1020210239340064A136134
S1132A600FB1FFF75FFF2CB921462846BDE8F840B7
S1132A70FEF7BABCF8BD00BF00300E4000400E4067
S1132A80002D3101CC56000013B50246FFF7ECFED1
S1132A90C8B152B90D4B0191D3F80041FEF766FB62
S1132AA0C4F30422019902FB0002094B1B7843B1D1
S1132AB0084B9A4205D8022002B0BDE81040FFF747
S1132AC0A3BF0020F8E702B010BD00BF00400E40D5
S1132AD07A130020002D310110B5174B4AF6E85245
S1132AE0596B5A639A6FD407FCD41B6C13F003031D
S1132AF01EBF124A0124C2F8B44A834216D00E4BB8
S1132B009A6FD207FCD41A6C22F0030202431A64AF
S1132B109A6F12F00102FBD10038084C18BF012053
S1132B200129C4F8B40A08BF5A6303E010B9034B7F
S1132B30C3F8B40A10BD00BF00300E400000C64305
S1132B402DE9F04F89B0A0F5E1630024B3F5966F49
S1132B50CDE90244CDE90444CDE9064406468A465B
S1132B60934605D940F67B315548FEF77BFBA3E03D
S1132B70B0F5E16F534B8CBF0122002249D1D3F849
S1132B801832C3F30721DBB2079104934FF416758F
S1132B904FF4966748E0BBF1000F0ED0D9F85C20E3
S1132BA022F4FE4222F00202B6F5E16F42EA01226B
S1132BB018BF02200243C9F85C20BAF1000F26D0E6
S1132BC020460021FFF7BAFE044610B940F6D8317A
S1132BD0CAE701214046FFF7B1FE044610B94FF49D
S1132BE03E61C1E7384A536EBD4238BF3D4623F4C7
S1132BF0FF73E72D23F0010328BFE725B6F5E16F46
S1132C0018BF43F0010343EA4503536654E001242B
S1132C1052E0D3F81832190EC3F307430791049313
S1132C204FF496654FF4E167DFF89C90D9F84C4077
S1132C300192C4F30174234605A902A8FFF71EFEFE
S1132C40D9F8EC30019AC3F30128434606A903A836
S1132C50FFF714FE049BF01B079FF91A4143B1FBD5
S1132C60F5F299182CBF012300238F421ED3EBB930
S1132C70069A039FD31B4343B3FBF5F3FF182CBF02
S1132C8001230023BA4211D383B9059B029AA3EB13
S1132C90020C00FB0CF0B0FBF5F555192CBF01201C
S1132CA00020AB4202D300283FF475AF044840F63D
S1132CB0C931FEF7D7FA0024204609B0BDE8F08FE9
S1132CC0CC5600000081E00F00300E4008B5334AB6
S1132CD0136FD16C11F0010F03F0060344D0002BE5
S1132CE042D0132857D9143813288CBF1023082333
S1132CF02A49013BCA6C180322F47F4240EA0323A9
S1132D001343CB64264BCA6C1B88C2F303222833BB
S1132D10013202EB820003EB5303B3FBF0F3C86C04
S1132D20013B072B28BF072320F0EE6040EA036332
S1132D3043F48013CB641B4BB3F90030002B12DB3C
S1132D4003F12800C0F34E030344500800EB420291
S1132D50B3FBF2F20B6D072A28BF072223F070039E
S1132D6043EA02120A6508BDD16C01F0010119435E
S1132D7004D109280FD90A380928B6E7D26CD2073A
S1132D8002D50BB92728B0E7074840F61E41FEF7E5
S1132D9069FA0023ACE70423AAE700BF00300E4021
S1132DA07613002078130020CC56000010B50C4B8D
S1132DB0D3F88039044633B9012804D9094840F6C8
S1132DC03C41FEF74FFA084A136F23F007032343ED
S1132DD01367064BBDE810401888FFF777BF00BFA4
S1132DE00000C643CC56000000300E40741300208F
S1132DF038B50389C82B044604D951484FF42261DD
S1132E00FEF730FAA28823899A4204D94C4840F646
S1132E102121FEF727FAB4F90C30C82B04DD484809
S1132E2040F62221FEF71EFA6378012B55D1A388C0
S1132E30C82B04D940F626214148FEF713FAE2884C
S1132E4042F210739A4204D93D4840F63321FEF70A
S1132E5009FAE3884A2B48D9B3F5FA7F47D340F6F9
S1132E60C312934294BF4FF000524FF04052354981
S1132E70B4F90C00CB6C23F0405323F00103002879
S1132E80A8BF43F001031343CB64D1F8EC30A2880C
S1132E9043F44073C1F8EC302B4B1A80CB6E43F0F3
S1132EA08073CB66294BD3F8800900B10420FFF767
S1132EB07DFF274B21891980264BB4F90C20A0886B
S1132EC01A80FFF703FFA37BA3B1012B23D01C4877
S1132ED040F63211FEF7C6F90FE0022BAFD1A388FA
S1132EE00A2BACD940F62B21A6E70022BFE74FF00E
S1132EF08052BCE7134B184A9A6501226088114638
S1132F00FFF71EFE054648B90D4840F66A21FEF754
S1132F10A9F9284638BD0B4B104AEDE7094AD36B93
S1132F2043F48063D3636078FFF7D6FDA37AA3F1FB
S1132F30200253425341054AC2F89437E9E700BFDF
S1132F40CC56000000300E40741300200000C6432D
S1132F50761300207813002077402057372110B7CC
S1132F6038B5082804460D4604D84FF6FF73CB4005
S1132F70DB0704D4084840F22D41FEF773F93023EF
S1132F800C2013FB040000F18C40012100F5082003
S1132F9001FA05F5056038BD1A57000038B5082850
S1132FA004460D4604D84FF6FF73CB40DB0704D428
S1132FB0084840F2FE31FEF755F930230C2013FB8C
S1132FC0040000F18840012100F5082001FA05F50C
S1132FD0056038BD1A57000070B505460E46144604
S1132FE0FFF732FC296881EA040202EA06044C4035
S1132FF02C60BDE87040FFF72BBC0000F8B5082832
S113300005460C4616461F4604D84FF6FF73CB40C0
S1133010DB0704D419484FF4B071FEF723F926B145
S113302021462846CFB1FFF79BFF05EB4503072C4C
S11330304FEA03134FF00F0112D8A00006FA00F272
S113304081400F481844FFF7C7FFAEB92146284610
S113305077B1BDE8F840FFF783BFFFF79FFFE4E7D0
S1133060A4F10800800006FA00F281400548E9E76F
S1133070BDE8F840FFF792BFF8BD00BF6A570000F3
S1133080048008400880084038B5022804460D46EC
S113309003D911484C21FEF7E5F86B791F2B03D9AE
S11330A00D484F21FEF7DEF8AB786A789B0143EABE
S11330B082032A781343EA7843EA02132A7943EA1B
S11330C0C2236A7943EA0233AA79043443EA4243C5
S11330D02401024A135138BDB957000000200640AC
S11330E0014B1860704700BF0000C44270B54278BD
S11330F001790378002A827814BF04260026002A66
S1133100C27814BF10250025002A42794FEA023202
S113311042EA012242EA0302837942EA8332C37912
S113312014BF20240024002B037A42EA034343EA19
S11331300603427A43EA050314BF4FF40041002119
S11331402343002A14BF4FF4003200220B431343DD
S1133150014A136070BD00BF002006402DE9F04114
S113316080460C461F46164622B934484FF4A171D6
S1133170FEF778F83CB9324B98450CBF31483248D9
S1133180FEF77EFE0446402F4BD009D8A7B1202F6E
S11331903DD0BDE8F041294840F28911FEF762B8FC
S11331A0602FF6D1B6EB940F04D9244840F2831172
S11331B0FEF758F8042108E0B6EB141F04D91F48A1
S11331C04FF4BA71FEF74EF810214E4371081F4DAB
S11331D001EB4414B4FBF6F6203EB5EBC60F4FEA00
S11331E0C60404D215484FF4D071FEF73BF8D8F862
S11331F0003023F06003C8F80030D8F800302C40C9
S11332001F43C8F80070C8F81440BDE8F081B6EB5D
S1133210D40F04D9094840F27911FEF723F80821A4
S1133220D3E70625B4FBF5F3B34204D203484FF4C5
S1133230BF71FEF717F82946C7E700BF085800001A
S1133240000801405041070040410500F8FF7F009D
S113325070B506460C46154622B90F4840F28E2139
S1133260FEF700F83CB90D4B9E420CBF0C480D48CC
S1133270FEF706FE04460C4B6D00013CB4FBF5F46E
S113328013EA04234FEA042504D0034840F2B3218F
S1133290FDF7E8FF756170BD0858000000080140A3
S11332A05041070040410500070080FF38B5164B28
S11332B0984204460D4620D003F5806398421CD002
S11332C003F58063984218D003F58063984214D0C4
S11332D003F58063984210D003F5806398420CD0C4
S11332E003F53053984208D003F58063984204D024
S11332F006484FF43371FDF7B5FFEB435B0003F071
S11333000A03E360E56038BD00000140085800008E
S113331038B5254B254D984204461ED0A8421CD0F2
S113332003F50063984218D003F58063984214D0E3
S113333003F58063984210D003F5806398420CD063
S113334003F53053984208D003F58063984204D0C3
S1133350174840F24241FDF785FF40F6AA63E36057
S113336041F20502002323606260124AA360636194
S1133370E364A2640C4A236694426367A367E36729
S113338003D002F50062944200D123650023AC42CD
S1133390A36506D0084A944203D002F580629442A1
S11333A000D1E36538BD00BF0000014000040140C6
S11333B008580000F9FF0100000C014038B5314BFA
S11333C0984204460D4620D003F5806398421CD0F1
S11333D003F58063984218D003F58063984214D0B3
S11333E003F58063984210D003F5806398420CD0B3
S11333F003F53053984208D003F58063984204D013
S1133400214840F2FD21FDF72DFF2046FFF780FF04
S1133410AB7C1BB1236843F080432360EB7C1BB17E
S11334202B7D43F08003A3652A8A6B7B1343EA89CF
S1133430134363602B7BD5E901122046FFF78EFE10
S11334406B7D1BB1236843F480332360AB7D1BB1D8
S1133450236843F400432360EB7D2A7E1B07120597
S113346002F4E00203F0E04313432366636F23F0A6
S113347030036367626F6B7E134363672B78E3608B
S113348038BD00BF000001400858000038B5314B7A
S1133490984204460D4618D003F58063984214D030
S11334A003F58063984210D003F5806398420CD0F2
S11334B003F58063984208D003F58063984204D0F2
S11334C0254840F26931FDF7CDFE2046FFF720FF85
S11334D0A97B2A8A2368002942F0010214BF4FF411
S11334E08061002113430B432A7D23602368002A53
S11334F014BF4FF00052002213432360AB7C1BB176
S1133500EB7C43F08003A3652B7B43F4805363601F
S1133510D5E901122046FFF79BFE6B7B0BB110230C
S1133520E3606B7D1BB1236843F480332360AB7D80
S11335301BB1236843F400432360EB7D2A7E1B0701
S1133540120503F0E04302F4E002134323662B78F0
S1133550E36038BD000001400858000003691B0601
S1133560FCD5C069C0B2704703695A06FCD54163F3
S113357003699B06FCD5C069C0B2704703695B064A
S1133580FCD54163704700007FB5094B6A4603F1DF
S11335901006154618685968144603C40833B34224
S11335A02246F7D12846FFF723FC002004B070BD63
S11335B05858000013B568460024022300948DF87F
S11335C004408DF80530FFF7F5F9204602B010BD30
S11335D01FB5124A1068516801AB03C390681860A4
S11335E00F4BD3F8B42012030FD4D3F8B830C3F37D
S11335F008030C48ADF80630FDF70AFE01A8FFF7F2
S1133600A9F8002005B05DF804FB074B1B884FF6B2
S1133610FF72934208BF8423EBE700BF68580000A1
S11336200081E00F80F0FA020001E00F07B5084BBB
S113363018680190462301A88DF80430FFF7D8F8E4
S11336406420FEF7C9FD002003B05DF804FB00BF51
S11336507458000010B50C480C4C6FF00402A02103
S113366012F0800FD3B21BBF03F00F03043BA31867
S11336701B1802F101020CBF83F800131976462AC5
S1133680EED1002010BD00BF00ED00E000E100E03D
S113369010B50446FFF7D8F8024B1C60FFF7D8F8C2
S11336A0002010BD7C13002010B5FFF7CDF8034BAC
S11336B01C68FFF7CDF8204610BD00BF7C13002026
S11336C007B530B9CDE90012FFF7EEFFDDE90012CE
S11336D030B1436823B1006803B05DF804EB1847C8
S11336E0232003B05DF804FB30B585B01C4658B9FF
S11336F0CDE90012FFF7D8FFDDE9001204B903ACED
S113370020B9232005B030BD03B903AC8568002D72
S1133710F7D023460068A847F4E700207047FEE787
S11337204FF400534B600020704701207047002085
S1133730704707B501AB00200190FFF7D5FF019852
S1133740002808BF4FF0FF3003B05DF804FB000011
S113375010B500201446FFF7B3FF18B10248BF218B
S1133760FDF780FD204610BD7858000080F8241035
S1133770704790F82400704770B504460568FFF759
S113378093FF844202D10020FFF782FF95F928308D
S1133790002B11DB03F01F015B099B0003F1604365
S11337A003F5614301228A40C3F88021C3F88020D5
S11337B0BFF34F8FBFF36F8F0023C4E90033C4E915
S11337C00433A3602846EB68BDE87040184770B521
S11337D090F8243005460C468E18E3B9A6420AD068
S11337E095F82630002BF9D02B6814F8011B2846D5
S11337F098470028F2D070BD95F826305BB1237845
S11338000A2B03D12B680D21284698472B6814F8FE
S1133810011B28469847B442EED1ECE72DE9F74363
S11338204FF00009044690461E46C3F800904F1E10
S11338303368434505D2FFF70EF8A269C2B9FFF712
S113384010F894F827305BB9112301220DF1070118
S113385020468DF80730FFF7BAFF012384F827309C
S11338603368002B0CBF1B20002003B0BDE8F0839D
S1133870E16922698A5C07F8012F2569226A01350A
S11338809542A26908BF4D46013AA2612561FEF73F
S1133890E8FFA36820469847336801333360C7E7DD
S11338A008B5FFF794FF002008BD0000F8B51F46D7
S11338B0536805460C461646002B3ED09368002BF1
S11338C03DD02C220021204600F0E4FD7368E36122
S11338D0B3682362337B84F82430B37B84F82530C7
S11338E040F20113E384069B6360079BA360089B7B
S11338F02760E36096F90030124A84F828306A6041
S1133900114AAA60114A2A61114A6A61002B114ABC
S11339102C60EA600CDB03F01F015B099B0003F1E0
S1133920604303F5614301228A40C3F880211A6091
S11339302846FFF7ADFE0020F8BD2220FCE7212039
S1133940FAE700BFA13800001D3800006D37000001
S1133950733700007937000010B50446FEF77BFF8B
S1133960A269236A9A4203D2FEF77BFF012010BDAD
S1133970FEF777FF0020FAE773B504460D46AFF370
S11339800080FEF768FF94F8253006466BB1132DCE
S113399007D1002384F8263002B0BDE87040FEF75A
S11339A060BF112D01D10123F4E7A269236A9A4271
S11339B004D3154840F26911FDF754FC6369E269C8
S11339C0D554A26963690132A261226A0133934228
S11339D0636104BF002363613046FEF742FF94F83D
S11339E025307BB1A269236A9A420BD113230122A9
S11339F00DF1070120468DF80730FFF7E8FE00239C
S1133A0084F8273002B070BDE5580000C26AD36C58
S1133A1043F00403D364704710B5C26A04461369C3
S1133A205906FCD500231A4694F8351094F834004E
S1133A30FFF7E4FA00231A4694F8371094F8360096
S1133A40FFF7DCFA94F83C30DA0707D5002394F842
S1133A50391094F838001A46FFF7D0FA94F83C303D
S1133A609B0707D5002394F83B1094F83A001A46B4
S1133A70FFF7C4FAE06A0021FFF718FC206B00216D
S1133A80FDF7ECFC002010BD08B5C06AFFF776FD19
S1133A90002008BD2DE9F04186B01C46524B0C9D18
S1133AA00293524B0193012600230093CDE9036650
S1133AB04F4B90460A462946FFF7F8FE0746002872
S1133AC056D12368EB6263682B63637A85F83530DB
S1133AD0237A85F83430E37A85F83730A37A85F889
S1133AE03630637B85F83930237B85F83830E37BC7
S1133AF085F83B30A37B85F83A303E483146FDF7E4
S1133B00ADFC3D483146FDF7A9FC617A207A334685
S1133B100422FFF773FA33460222E17AA07AFFF710
S1133B206DFA60683146FDF799FC88F800704146EB
S1133B302068FFF743FC2268536F43F00303536785
S1133B40936F617C23F4E06323F007030B43217C30
S1133B5043EA012303219367516785F83C7098F881
S1133B601930202B2BD007D803B3102B09D02327CF
S1133B70384606B0BDE8F081302BF8D185F83C100A
S1133B8002E085F83C603E4600230222617B207BF4
S1133B90FFF734FA2368A27CDA675A6E42F0040213
S1133BA05A665A6F42F010025A675EB92068C36CB5
S1133BB043F00403C3640521FFF778FBD8E702232D
S1133BC085F83C30E17BA07B00230422FFF716FA42
S1133BD02368E17CDA6F42EA0122DA675A6F42F025
S1133BE020025A67E2E700BF193A00000D3A0000CC
S1133BF0893A00004041050000550A0010B5C36A27
S1133C001B691B06044610D5FFF7A6FE40B1E06A07
S1133C10FFF7A4FC01462046BDE81040FFF7ACBE08
S1133C20E26AD36C23F00403D36410BD30B50F4CA7
S1133C3041612368ABB92060836011E0891A9A68F6
S1133C4041611D462AB113465A698A42F6D955B1D3
S1133C501A46A8601346836013B15A69511A596110
S1133C6030BD0025F0E72060F5E700BFA813002071
S1133C7010B500F0B7F90A4C0A4B19682368C31A47
S1133C8001B10BB9206010BD4A699A422EBFD21A05
S1133C909B1A00224A6128BF00238968F0E700BF0D
S1133CA08C130020A813002038B5134D2B685B69D2
S1133CB093B1124A146802201C4400F0C7F920464C
S1133CC000F096F90E492A6800230B70D08880070B
S1133CD009D501230B7038BD022000F0B7F902208A
S1133CE000F0DAF9EEE79268002AF4D05069034450
S1133CF0012BEBD9EFE700BFA81300208C130020A1
S1133D00941300200C490B6800227BB183420AD132
S1133D1083687AB1936083681BB15A6941690A4424
S1133D205A61002070471A469B68EEE70028EFD0DE
S1133D30022070470B60EEE7A8130020F8B51F4F70
S1133D40FEF789FD3C780646002C32D11C4B1C60E2
S1133D501C4B1C601C4B1C8000F000F9012000F07F
S1133D6075F900F0B9F9194B0546186020B93046C9
S1133D70FEF777FD2320F8BD154B02461C6000209A
S1133D802346012100F0CCF9124B00201A600121D6
S1133D902A46234600F0C4F90F4B2A46186040F225
S1133DA0E73123460D4800F0BBF90D4B18600123A1
S1133DB03B703046FEF755FD0020DCE788130020F9
S1133DC0A81300208C13002096130020A4130020B5
S1133DD09C130020841300208013002018FCFFFF94
S1133DE0901300202DE9F84FC207044620D5514B0B
S1133DF05149524A1D6812680B681344AB42504A39
S1133E000B6004D310685B1B013010600B604D49DC
S1133E10136809680B4413604B4A138801339BB23F
S1133E201380FFF725FF494B1B680BB1FFF73CFFDD
S1133E30A3077CD5FEF70FFD0546FFF719FF4FF0EA
S1133E40000A424FDFF80C915646D0463C680CB14C
S1133E5063698BB13E4B0022012E1A7003D1BAF173
S1133E60020F08BF1E70002C51D0FFF71DFF28461B
S1133E70BDE8F84FFEF7F5BC23461A792179914243
S1133E8088BF1C469B6813B15A69002AF5D028469E
S1133E90FEF7E7FCD4F810A0BAF1000F3BD000F015
S1133EA0A1F8A269851AEB17AA4578EB030333DA64
S1133EB023691344A36101222369D3B1CAB9EB175F
S1133EC0BAEB050563EB4303002B04DA40F2094126
S1133ED04846FDF7C7F9FEF7BEFC29468246204650
S1133EE0FFF7A4FEA36922691344A3615046FEF7B9
S1133EF0B8FCE368B4F806A0013613B12168204683
S1133F009847FEF7A8FC0546FFF7B2FE9EE702209D
S1133F1000F0AAF8ABE75546FEF79DFC8346204621
S1133F20FFF7F0FE5846FEF79CFC0022C4E7BDE80C
S1133F30F88F00BFA41300209813002084130020DE
S1133F409C1300208013002096130020A813002047
S1133F50A0130020485900000020704710B586B017
S1133F601C4B1868596803AA03C21989D3F80A00BC
S1133F7011800024DA8901901B7C1748ADF80820D1
S1133F8001218DF80A30FDF769FA8DF80C40FFF72E
S1133F90E3FF8DF8100003A8FFF7A8F801A901209A
S1133FA08DF80440FFF770F80C4A536A23F4FF635A
S1133FB023F00703536240F2FF73136201209460FD
S1133FC0FFF78EF8064B4FF00042C3F880211A60C9
S1133FD006B010BDAA590000A00914000020064034
S1133FE000E100E0014B9868704700BF00200640E4
S1133FF010B50446FEF728FC124A9368516D926985
S1134000520704D4CA1A032A01D88B420DD1E21AEA
S1134010022A98BFDC1C0B4BB4F1FF3F38BF013CB4
S11340205C655A6A42F004025A62FEF711FC064AC1
S1134030137833B103490B6D43F002030B6500237E
S1134040137010BD00200640241000208207054A8A
S113405000F00103516A48BF43F004030B43536269
S1134060704700BF00200640820700F0010309D515
S1134070074A0121117007490A6D22F0030243F037
S113408004030A6503494A6A22EA03034B62704740
S11340902410002000200640830742BF014B042265
S11340A0DA6170470020064010B5FEF7D4FB094AD8
S11340B093690446590703F0010003F0070348BF5E
S11340C040F002001362FFF78DFE2046BDE8104069
S11340D0FEF7C7BB0020064008B50448FDF7D0FE34
S11340E00346FFF739FF23FA00F008BDA0091400C6
S11340F008B5FCF765FFFCF7A5FFFCF7A4FFFCF788
S1134100ABFFBDE80840FCF7A8BF08B5FCF7A6FF65
S1134110FCF7A5FFFCF7A4FFBDE80840FCF7A1BF2E
S113412053B94AB9002908BF00281CBF4FF0FF311A
S11341304FF0FF3000F074B9ADF1080C6DE904CE16
S113414000F006F8DDF804E0DDE9022304B070476E
S11341502DE9F047089D04468E46002B4DD18A4236
S1134160944669D9B2FA82F252B101FA02F3C2F169
S1134170200120FA01F10CFA02FC41EA030E9440FA
S11341804FEA1C48210CBEFBF8F61FFA8CF708FB1B
S113419016E341EA034306FB07F199420AD91CEBF3
S11341A0030306F1FF3080F01F81994240F21C8125
S11341B0023E63445B1AA4B2B3FBF8F008FB10336D
S11341C044EA034400FB07F7A7420AD91CEB0404A2
S11341D000F1FF3380F00A81A74240F20781644472
S11341E0023840EA0640E41B00261DB1D4400023F7
S11341F0C5E900433146BDE8F0878B4209D9002D5B
S113420000F0EF800026C5E9000130463146BDE8E4
S1134210F087B3FA83F6002E4AD18B4202D382424E
S113422000F2F980841A61EB030301209E46002DFD
S1134230E0D0C5E9004EDDE702B9FFDEB2FA82F252
S1134240002A40F09280A1EB0C014FEA1C471FFAB0
S11342508CFE0126200CB1FBF7F307FB131140EA97
S113426001410EFB03F0884208D91CEB010103F164
S1134270FF3802D2884200F2CB804346091AA4B226
S1134280B1FBF7F007FB101144EA01440EFB00FEFA
S1134290A64508D91CEB040400F1FF3102D2A6455F
S11342A000F2BB800846A4EB0E0440EA03409CE7FE
S11342B0C6F12007B34022FA07FC4CEA030C20FAAB
S11342C007F401FA06F31C43F9404FEA1C4900FACB
S11342D006F3B1FBF9F8200C1FFA8CFE09FB181148
S11342E040EA014108FB0EF0884202FA06F20BD9BB
S11342F01CEB010108F1FF3A80F08880884240F20B
S11343008580A8F102086144091AA4B2B1FBF9F04E
S113431009FB101144EA014100FB0EFE8E4508D949
S11343201CEB010100F1FF346CD28E456AD90238CE
S1134330614440EA0840A0FB0294A1EB0E01A142B3
S1134340C846A64656D353D05DB1B3EB080261EB21
S11343500E0101FA07F722FA06F3F1401F43C5E9FB
S1134360007100263146BDE8F087C2F12003D84031
S11343700CFA02FC21FA03F3914001434FEA1C4773
S11343801FFA8CFEB3FBF7F007FB10360B0C43EA65
S1134390064300FB0EF69E4204FA02F408D91CEB15
S11343A0030300F1FF382FD29E422DD90238634413
S11343B09B1B89B2B3FBF7F607FB163341EA0341B3
S11343C006FB0EF38B4208D91CEB010106F1FF3802
S11343D016D28B4214D9023E6144C91A46EA0046F9
S11343E038E72E46284605E70646E3E61846F8E68B
S11343F04B45A9D2B9EB020864EB0C0E0138A3E7D4
S11344004646EAE7204694E74046D1E7D0467BE7B4
S1134410023B614432E7304609E76444023842E72C
S1134420704700BF08B5074B044613B10021AFF332
S11344300080054B1868836A03B198472046FFF74C
S11344406EF900BF00000000BC59000070B50D4DAE
S11344500D4C641BA4100026A64209D10B4D0C4C34
S113446001F002F8641BA4100026A64205D170BD19
S113447055F8043B98470136EEE755F8043B984756
S11344800136F2E78C1000208C1000208C100020E4
S11344909010002002440346934200D1704703F871
S11344A0011BF9E737B5002944D051F8043C0190C9
S11344B0002BA1F10404B8BFE41800F0F3F91E4A7C
S11344C00198136833B96360146003B0BDE83040E9
S11344D000F0EEB9A34208D9256861198B4201BFE7
S11344E019685B6849192160EDE71A465B680BB1EE
S11344F0A342FAD911685518A5420BD12468214466
S11345005418A3421160E0D11C685B6853602144D5
S11345101160DAE702D90C230360D6E72568611934
S11345208B4204BF19685B68636004BF491921604A
S11345305460CAE703B030BDAC13002070B50E4E12
S11345400C463168054611B900F0A4F830602146E4
S1134550284600F09FF8431C0AD0C41C24F003042E
S1134560A04207D0211A284600F094F8013001D166
S11345704FF0FF34204670BDB01300202DE9F04108
S1134580CD1C25F0030508350C2D38BF0C25002D56
S1134590074601DBA94205D90C233B6000263046BF
S11345A0BDE8F0812E4E00F07DF933681C4634BB23
S11345B029463846FFF7C2FF431C04464DD13468F0
S11345C02646002E40D123683146384604EB0308C2
S11345D000F060F880453AD1216803356D1A25F062
S11345E0030508350C2D38BF0C2529463846FFF73E
S11345F0A5FF01302BD023682B4423600EE02268F2
S1134600521B1ED40B2A16D96119A342256018BF68
S11346105960636808BF316062514B60384604F1E9
S11346200B0600F045F926F00706231DF21AB6D052
S11346309B1BA350B3E76268A3420CBF32605A606D
S1134640ECE723466468B2E734467668B9E70C239E
S11346503B60384600F02CF9A1E72560DEE700BF97
S1134660AC1300200FB40A4B13B51C6824B1A36922
S113467013B9204600F076F805AB049AA1680193BB
S1134680204600F045F902B0BDE8104004B0704780
S11346902810002038B5064D0023044608462B6038
S11346A0FCF7E2FD431C02D12B6803B1236038BD43
S11346B0B8130020002310B50446C0E90033C0E954
S11346C00433836081814366C28183611946082271
S11346D05C30FFF7DFFE054B6362054BA362054BBD
S11346E0E362054B2462236310BD00BF994E0000B2
S11346F0BB4E0000F34E0000174F0000014900F0CC
S1134700AFB800BFF151000070B568224D1E55438B
S11347100E4605F17401FFF731FF044640B1002154
S1134720C0E900160C30A06005F16802FFF7B2FE84
S1134730204670BD014800F0B3B800BFB513002097
S1134740014800F0AEB800BFB5130020014800F0E6
S1134750A7B800BFB6130020014800F0A2B800BFFC
S1134760B613002010B50446FFF7F0FFA3691BB190
S1134770BDE81040FFF7F0BFC4E912332365134BC3
S1134780134A1B68A262A34204BF0123A36120460B
S113479000F020F86060204600F01CF8A06020467D
S11347A000F018F80022E06004216068FFF782FF3F
S11347B0A06801220921FFF77DFFE068022212218F
S11347C0FFF778FF0123A361D2E700BFBC590000C3
S11347D0FD460000F8B50746FFF7ACFF1E4B1E6808
S11347E0B36913B93046FFF7BDFF4836D6E9013443
S11347F0013B03D533680BB33668F7E7B4F90C50C3
S1134800D5B9164BE36004F15800656600F047F82B
S1134810FFF796FFC4E90155C4E904552560A56175
S11348200822294604F15C00FFF734FEC4E90D5563
S1134830C4E912552046F8BD6834D9E70421384646
S1134840FFF762FF044630600028D5D1FFF778FFF8
S11348500C233B60EEE700BFBC5900000100FFFFE2
S11348602DE9F8430646884600F148040027D4E9B8
S11348700195B9F1010905D52468002CF7D1384612
S1134880BDE8F883AB89012B07D9B5F90E300133A4
S113489003D029463046C04707436835E9E77047E7
S11348A0704770470148FFF7FBBF00BFB4130020F7
S11348B00148FFF7F6BF00BFB41300209368013B23
S11348C0002B10B4936008DA9469A34201DB0A292F
S11348D003D15DF8044B00F023BB1368581C10602F
S11348E0197008465DF8044B7047F8B506460F4644
S11348F01446D518AC4201D1002007E014F8011B7E
S11349003A463046FFF7DAFF431CF3D1F8BD000006
S11349102DE9F04F0D469DB014469846064618B151
S113492083690BB9FFF71EFF894B9D421BD1756844
S11349306B6ED90705D4AB899A0502D4A86DFFF72D
S1134940AFFFAB891B0701D52B69EBB9294630466C
S113495000F04AFBC0B16B6EDC070ED54FF0FF30A0
S11349601DB0BDE8F08F7B4B9D4201D1B568DFE7F8
S1134970794B9D4208BFF568DAE7AB899805EDD419
S1134980A86DFFF78EFFE9E70023099320238DF834
S11349902930CDF80C803023DFF8C0818DF82A301F
S11349A04FF0010923469A4613F8012B0AB1252A30
S11349B0F9D1BAEB040B0BD05B46224629463046AC
S11349C0FFF793FF013000F0AA80099A5A44099234
S11349D09AF80030002B00F0A28000234FF0FF3241
S11349E0CDE905230AF1010A049307938DF85330A6
S11349F01A935446052214F8011B584800F0B0FCE1
S1134A00049AD8B9D10644BF20238DF85330130734
S1134A1044BF2B238DF853309AF800302A2B15D03D
S1134A20079A544600204FF00A0C214611F8013B26
S1134A30303B092B4ED9B0B1079214E0A0EB080328
S1134A4009FA03F313430493A246D2E7039B191D07
S1134A501B680391002BBBBF5B4242F00202079329
S1134A600793B8BF049223782E2B0CD163782A2B9A
S1134A7035D1039B1A1D1B680392002BB8BF4FF05E
S1134A80FF3302340593DFF8E4A021780322504673
S1134A9000F066FC40B14023A0EB0A0003FA00F0EA
S1134AA0049B03430134049314F8011B2C488DF830
S1134AB02810062200F054FC00283FD0294B1BBBD1
S1134AC0039B073323F0070308330393099B3B44F9
S1134AD0099367E70CFB02320C460120A5E700238B
S1134AE00134059319464FF00A0C204610F8012BA7
S1134AF0303A092A03D9002BC5D00591C3E70CFB32
S1134B00012104460123F0E703AB00932A46164B28
S1134B1004A93046AFF300800746781CD6D16B6EEB
S1134B20D90705D4AB899A0502D4A86DFFF7B9FE5D
S1134B30AB895B063FF512AF099811E703AB00930D
S1134B402A46094B04A9304600F080F8E4E700BF88
S1134B50E0590000005A0000C0590000205A00002B
S1134B602A5A000000000000EB480000265A00000A
S1134B702DE9F047164699468A680B69DDF82080CE
S1134B809342B8BF1346336091F8432007460C465E
S1134B900AB1013333602368990642BF3368023394
S1134BA03360256815F0060506D104F1190AE36897
S1134BB032689B1AAB4226DC94F84320131E226809
S1134BC018BF012392062BD404F143024946384608
S1134BD0C04701301ED02368E568326803F006033D
S1134BE0042B08BFAD1AA36822690CBF25EAE5753A
S1134BF000259342C4BF9B1AED1800261A34B5420F
S1134C001AD1002008E00123524649463846C047DD
S1134C10013003D14FF0FF30BDE8F0870135C6E71E
S1134C20E1185A1C302081F84300224494F84510BE
S1134C3082F843100233C7E7012322464946384627
S1134C40C0470130E6D00136D9E700002DE9FF471F
S1134C500F7E0C9D782F914680460C469A4601F1B2
S1134C60430207D8622F0AD8002F00F0D880582FAB
S1134C7000F0A38004F1420584F842703AE0A7F101
S1134C806303152BF6D801A151F823F0E54C00007D
S1134C90F94C0000754C0000754C0000754C000088
S1134CA0754C0000F94C0000754C0000754C000078
S1134CB0754C0000754C0000054E0000294D0000A5
S1134CC0E74D0000754C0000754C0000274E0000B5
S1134CD0754C0000294D0000754C0000754C000017
S1134CE0EF4D00002B681A1D1B682A6004F1420571
S1134CF084F842300123A3E020682968060601F104
S1134D0004030AD50E682B60002E03DA2D237642A5
S1134D1084F843305E480A2319E00E682B6010F0D3
S1134D20400F18BF36B2EFE72B682068191D2960C1
S1134D30010601D51E6802E04606FBD51E885448CC
S1134D406F2F0CBF08230A23002184F843106568E1
S1134D50A560002DA2BF216821F0040121600EB9D5
S1134D60002D4DD01546B6FBF3F103FB1167C75D6B
S1134D7005F8017D3746BB420E46F4D9082B0BD10A
S1134D802368DE0708D5236961689942DEBF3023B2
S1134D9005F8013C05F1FF35521B2261CDF800A056
S1134DA04B4603AA21464046FFF7E2FE01304CD1B0
S1134DB04FF0FF3004B0BDE8F087354881F8457006
S1134DC02968236851F8046B29601D0614D5DF0790
S1134DD044BF43F0200323601EB9236823F020035B
S1134DE023601023B0E7236843F020032360782373
S1134DF0284884F84530E3E7590648BFB6B2E6E7E9
S1134E001546BBE72B6826686169181D28603506BE
S1134E101B6801D5196002E07006FBD519800023D8
S1134E2023611546BAE72B681A1D2A601D6862685B
S1134E300021284600F094FA08B1401B60606368C2
S1134E402361002384F84330A8E723692A464946AE
S1134E504046D0470130ABD023689B0713D4E068A9
S1134E60039B9842B8BF1846A4E70123324649463B
S1134E704046D04701309BD00135E36803995B1A63
S1134E80AB42F2DCEBE7002504F11906F5E700BFBD
S1134E90315A0000425A000010B50C46B1F90E1008
S1134EA000F0AEFA0028ABBF636DA3891B1823F48E
S1134EB08053ACBF6365A38110BD2DE9F0411F464B
S1134EC08B89DB0505460C46164605D5B1F90E104F
S1134ED00223002200F0C8F9A389B4F90E1023F4C8
S1134EE08053A38132463B462846BDE8F04100F09A
S1134EF069B810B50C46B1F90E1000F0B5F9431CB1
S1134F00A38915BF606523F4805343F48053A381C0
S1134F1018BFA38110BDB1F90E1000F0D3B8000082
S1134F20F8B50E461446054618B183690BB9FFF768
S1134F3019FC214B9C422BD16C68A369A360A38903
S1134F401A072FD523696BB323692068C01A6369D4
S1134F50F6B28342374604DC2146284600F048F97D
S1134F6030BBA368013BA36023685A1C22601E70F7
S1134F7063690130834204D0A389DB0706D50A2E76
S1134F8004D12146284600F033F988B93846F8BDE3
S1134F900A4B9C4201D1AC68CFE7094B9C4208BF45
S1134FA0EC68CAE72146284600F01EF80028CBD05A
S1134FB04FF0FF37EAE700BFE0590000005A000055
S1134FC0C059000038B5074D044608461146002272
S1134FD02A601A46FEF7BCFB431C02D12B6803B1BE
S1134FE0236038BDB8130020324B70B51D680646E7
S1134FF00C4625B1AB6913B92846FFF7B3FB2E4B1A
S11350009C420FD16C68A389B4F90C2019072CD4E5
S1135010DD0611D40923336042F04003A3814FF02D
S1135020FF303EE0254B9C4201D1AC68EBE7244BBA
S11350309C4208BFEC68E6E7580712D5616B41B1A2
S113504004F14403994202D03046FFF72BFA0023BF
S11350506363A38923F02403A3810023636023698A
S11350602360A38943F00803A38123694BB9A3896F
S113507003F42073B3F5007F03D02146304600F0DB
S11350802BF9A089B4F90C2010F001030AD00023F5
S1135090A36063695B42A361236943B910F0800094
S11350A0BAD170BD810758BF6369A360F4E70020DB
S11350B0F7E700BF28100020E0590000005A000064
S11350C0C059000038B5064D0023044608462B603D
S11350D0FEF723FB431C02D12B6803B1236038BDC8
S11350E0B81300208A892DE9F041054610070C46C3
S11350F058D44B68002B05DC0B6C002B02DC002021
S1135100BDE8F081E66A002EF9D0002312F4805243
S11351102F682B6032D0606DA3895A0705D5636868
S1135120C01A636B0BB1236CC01A00230246E66AF3
S1135130216A2846B047431CA38906D129681D2942
S11351402CD82A4ACA40D60728D500226260D9043E
S11351502269226004D5421C01D12B6803B9606521
S1135160616B2F600029CAD004F14403994202D034
S11351702846FFF797F900206063C1E7216A0123FD
S11351802846B047411CC7D12B68002BC4D01D2B27
S113519001D0162B01D12F60B1E7A38943F040035E
S11351A0A381ADE70F69002FA9D093070E6808BF4C
S11351B04B690F6018BF0023A6EB07088B60B8F19A
S11351C0000F9CDD216AA66A43463A462846B0474A
S11351D0002806DCA38943F04003A3814FF0FF308D
S11351E08EE70744A8EB0008E9E700BF0100402070
S11351F038B50B6905460C4613B90025284638BD59
S113520018B183690BB9FFF7ADFA144B9C421BD15B
S11352106C68B4F90C30002BEFD0626ED00704D464
S1135220990502D4A06DFFF73BFB28462146FFF702
S113523059FF636EDA070546E0D4A3899B05DDD4E4
S1135240A06DFFF72EFBD9E7054B9C4201D1AC685A
S1135250DFE7044B9C4208BFEC68DAE7E059000042
S1135260005A0000C059000038B5074D04460846EE
S1135270114600222A601A46FEF759FA431C02D14D
S11352802B6803B1236038BDB813002070B50E46F7
S1135290B1F90E10002996B014461D4608DAB6F985
S11352A00C3000222A601A0610D44FF480630EE0FA
S11352B06A4600F0B7F80028F1DB019A02F4704264
S11352C0A2F500535A425A412A60EEE740230020D7
S11352D0236016B070BD00008B8973B59D07064628
S11352E00C4607D504F1470323602361012363615E
S11352F002B070BD01AB6A46FFF7C8FF00990546CE
S11353003046FFF73BF948B9B4F90C309A05EFD4AD
S113531023F0030343F00203A381E3E70D4BB362DD
S1135320A389206043F08003A381009B6361019BF8
S113533020615BB1B4F90E10304600F085F828B155
S1135340A38923F0030343F00103A381A089054348
S1135350A581CDE7FD46000000000000000000002C
S113536001F0FF01102A2BDB10F0070F08D010F812
S1135370013B013A8B422DD010F0070F42B3F6D116
S1135380F0B441EA012141EA014122F007047FF02F
S113539000070023F0E80256083C85EA010586EA86
S11353A0010685FA47F5A3FA87F586FA47F6A5FAC2
S11353B087F68EB9EED1F0BC01F0FF0102F00702CE
S11353C032B110F8013B013A83EA010313B1F8D179
S11353D00020704701387047002D06BF354603385A
S11353E0073815F0010F07D1013015F4807F02BF93
S11353F0013015F4C03F0130F0BC0138704700BFE4
S113540038B5074D04460846114600222A601A465C
S1135410FEF78FF9431C02D12B6803B1236038BD1A
S1135420B813002038B5074D00230446084611463A
S11354302B60FEF775F9431C02D12B6803B123607E
S113544038BD00BFB813002038B5064D002304460C
S113545008462B60FEF769F9431C02D12B6803B19F
S1135460236038BDB8130020F8B500BFF8BC08BCF1
S11354709E467047F8B500BFF8BC08BC9E4670470E
S1135480EB7690455846415420202000050000004A
S11354900000000040420F00050100000000000071
S11354A000000000000000004641546673206D6F48
S11354B0756E7420737563636573730D0A00556E9E
S11354C061626C6520746F206D6F756E7420464147
S11354D0542066732E0D0A002E2E2F6175746F678B
S11354E0656E2F736C5F696F73747265616D5F694C
S11354F06E69745F75736172745F696E7374616EE3
S11355006365732E630000000500000000000000C6
S113551000C20100000500000010000000000000AF
S1135520000000000010014000B204000704070559
S11355300708070904040404272800003C1300207A
S113554020000000000100000024F400000000001E
S113555000000000000000000048E8010000000016
S1135560006CDC0280F0FA022F55736572732F61B0
S11355706C6961776F6C6B656E2F53696D706C69C4
S11355806369747953747564696F2F53444B732F33
S11355906765636B6F5F73646B2F706C6174666FA8
S11355A0726D2F656D6C69622F7372632F656D5F09
S11355B0636D752E63002F55736572732F616C696B
S11355C061776F6C6B656E2F53696D706C6963697D
S11355D0747953747564696F2F53444B732F6765E3
S11355E0636B6F5F73646B2F2F706C6174666F7283
S11355F06D2F636F6D6D6F6E2F696E632F736C5FAC
S1135600636F6D6D6F6E2E68002F55736572732F07
S1135610616C6961776F6C6B656E2F53696D706C2B
S1135620696369747953747564696F2F53444B7358
S11356302F6765636B6F5F73646B2F2F706C61747E
S1135640666F726D2F656D6C69622F696E632F656D
S11356506D5F636D752E68000403020D0A0E03026C
S1135660010C0302060C0A040B05020309070301DB
S1135670050B08060200040A0001400004000100B2
S1135680100000040002800008000200200000084E
S11356900001030080A8120100000000005125024F
S11356A00001000080F937030002000000A24A0450
S11356B000030000C0CF6A0002000000809FD500F4
S11356C002010000002D3101020200002F55736514
S11356D072732F616C6961776F6C6B656E2F5369A0
S11356E06D706C696369747953747564696F2F5351
S11356F0444B732F6765636B6F5F73646B2F706CC0
S11357006174666F726D2F656D6C69622F7372635D
S11357102F656D5F656D752E63002F55736572730C
S11357202F616C6961776F6C6B656E2F53696D7057
S11357306C696369747953747564696F2F53444B4E
S1135740732F6765636B6F5F73646B2F2F706C616E
S113575074666F726D2F656D6C69622F696E632F4D
S1135760656D5F6770696F2E68002F55736572737E
S11357702F616C6961776F6C6B656E2F53696D7007
S11357806C696369747953747564696F2F53444BFE
S1135790732F6765636B6F5F73646B2F706C6174D9
S11357A0666F726D2F656D6C69622F7372632F65FE
S11357B06D5F6770696F2E63002F55736572732F69
S11357C0616C6961776F6C6B656E2F53696D706C7A
S11357D0696369747953747564696F2F53444B73A7
S11357E02F6765636B6F5F73646B2F706C61746696
S11357F06F726D2F656D6C69622F7372632F656DA7
S11358005F727463632E63002F55736572732F6127
S11358106C6961776F6C6B656E2F53696D706C6921
S11358206369747953747564696F2F53444B732F90
S11358306765636B6F5F73646B2F706C6174666F05
S1135840726D2F656D6C69622F7372632F656D5F66
S113585075736172742E63000002080705000A0064
S1135860C8000000FFFF0100000000000006000166
S11358700D080E00000207002F55736572732F6127
S11358806C6961776F6C6B656E2F53696D706C69B1
S11358906369747953747564696F2F53444B732F20
S11358A06765636B6F5F73646B2F706C6174666F95
S11358B0726D2F736572766963652F696F73747285
S11358C065616D2F7372632F736C5F696F7374728C
S11358D065616D5F72657461726765745F7374642A
S11358E0696F2E63002F55736572732F616C696144
S11358F0776F6C6B656E2F53696D706C6963697437
S11359007953747564696F2F53444B732F676563C0
S11359106B6F5F73646B2F706C6174666F726D2F45
S1135920736572766963652F696F73747265616DEF
S11359302F7372632F736C5F696F73747265616D1B
S11359405F756172742E63002F55736572732F61D6
S11359506C6961776F6C6B656E2F53696D706C69E0
S11359606369747953747564696F2F53444B732F4F
S11359706765636B6F5F73646B2F706C6174666FC4
S1135980726D2F736572766963652F736C656570CC
S113599074696D65722F7372632F736C5F736C65BA
S11359A0657074696D65722E630001000000050066
S11359B00000000002000003000000002C10002082
S11359C000000000000000000000000000000000D3
S11359D000000000000000000000000000000000C3
S11359E000000000000000000000000000000000B3
S11359F000000000000000000000000000000000A3
S1135A000000000000000000000000000000000092
S1135A100000000000000000000000000000000082
S1135A20232D302B2000686C4C0065666745464783
S1135A300030313233343536373839414243444506
S1135A404600303132333435363738396162636475
S1075A506566000083
S10B5A5444A7FF7F01000000DC
S10F5A5C685A0000001000202500000023
S1135A6801000000C0EA210180F0FA02C0EA210125
S1135A7800800000C0130020C0EA2101FFFF0000DD
S1135A88006CDC02010000002C1000200000000063
S1135A98E0590000005A0000C0590000000000004E
S1135AA800000000000000000000000000000000EA
S1135AB800000000000000000000000000000000DA
S1135AC800000000000000000000000000000000CA
S1135AD800000000000000000000000000000000BA
S1135AE80000000000000000000000007D0100002C
S1075AF8590100004C
S9031105E6
